:020000040800F2
:1000000000000220CD3F0008690800086B080008C6
:100010006D0800086F080008710800080000000063
:10002000000000000000000000000000213B00086C
:100030007308000800000000C13B0008513E0008A2
:100040001D4000081D4000081D4000081D4000081C
:100050001D4000081D4000081D4000081D4000080C
:100060001D4000081D4000081D4000081D400008FC
:100070001D4000081D4000081D4000081D400008EC
:100080001D4000081D4000081D4000081D400008DC
:100090001D4000081D4000081D4000081D400008CC
:1000A0001D4000081D4000081D4000081D400008BC
:1000B000750800081D4000081D4000081D4000088C
:1000C0001D4000081D4000081D400008850800086C
:1000D0001D400008950800081D4000081D4000084C
:1000E0001D4000081D4000081D4000081D4000087C
:1000F0001D4000081D4000081D4000081D4000086C
:100100001D4000081D4000081D4000081D4000085B
:100110001D4000081D4000081D4000081D4000084B
:10012000A50800081D400008B5080008C50800081B
:100130001D4000081D4000081D4000081D4000082B
:100140001D4000081D4000081D4000081D4000081B
:100150001D4000081D400008D50800081D4000088B
:100160001D4000081D4000081D4000081D400008FB
:100170001D4000081D4000081D4000080000000050
:080180001D4000081D400008AD
:1001900010B5054C237833B9044B13B10448AFF3C1
:1001A00000800123237010BD10000020000000001B
:1001B0009440000808B5034B1BB103490348AFF353
:1001C000008008BD000000001400002094400008DA
:1001D00053B94AB9002908BF00281CBF4FF0FF31AE
:1001E0004FF0FF3000F074B9ADF1080C6DE904CEAA
:1001F00000F006F8DDF804E0DDE9022304B0704702
:100200002DE9F047089D04468E46002B4DD18A42C9
:10021000944669D9B2FA82F252B101FA02F3C2F1FC
:10022000200120FA01F10CFA02FC41EA030E94408D
:100230004FEA1C48210CBEFBF8F61FFA8CF708FBAE
:1002400016E341EA034306FB07F199420AD91CEB86
:10025000030306F1FF3080F01F81994240F21C81B8
:10026000023E63445B1AA4B2B3FBF8F008FB103300
:1002700044EA034400FB07F7A7420AD91CEB040435
:1002800000F1FF3380F00A81A74240F20781644405
:10029000023840EA0640E41B00261DB1D44000238A
:1002A000C5E900433146BDE8F0878B4209D9002DEE
:1002B00000F0EF800026C5E9000130463146BDE878
:1002C000F087B3FA83F6002E4AD18B4202D38242E2
:1002D00000F2F980841A61EB030301209E46002D91
:1002E000E0D0C5E9004EDDE702B9FFDEB2FA82F2E6
:1002F000002A40F09280A1EB0C014FEA1C471FFA44
:100300008CFE0126200CB1FBF7F307FB131140EA2A
:1003100001410EFB03F0884208D91CEB010103F1F7
:10032000FF3802D2884200F2CB804346091AA4B2B9
:10033000B1FBF7F007FB101144EA01440EFB00FE8D
:10034000A64508D91CEB040400F1FF3102D2A645F2
:1003500000F2BB800846A4EB0E0440EA03409CE791
:10036000C6F12007B34022FA07FC4CEA030C20FA3E
:1003700007F401FA06F31C43F9404FEA1C4900FA5E
:1003800006F3B1FBF9F8200C1FFA8CFE09FB1811DB
:1003900040EA014108FB0EF0884202FA06F20BD94E
:1003A0001CEB010108F1FF3A80F08880884240F29E
:1003B0008580A8F102086144091AA4B2B1FBF9F0E2
:1003C00009FB101144EA014100FB0EFE8E4508D9DD
:1003D0001CEB010100F1FF346CD28E456AD9023862
:1003E000614440EA0840A0FB0294A1EB0E01A14247
:1003F000C846A64656D353D05DB1B3EB080261EBB5
:100400000E0101FA07F722FA06F3F1401F43C5E98E
:10041000007100263146BDE8F087C2F12003D840C4
:100420000CFA02FC21FA03F3914001434FEA1C4706
:100430001FFA8CFEB3FBF7F007FB10360B0C43EAF8
:10044000064300FB0EF69E4204FA02F408D91CEBA8
:10045000030300F1FF382FD29E422DD902386344A6
:100460009B1B89B2B3FBF7F607FB163341EA034146
:1004700006FB0EF38B4208D91CEB010106F1FF3895
:1004800016D28B4214D9023E6144C91A46EA00468C
:1004900038E72E46284605E70646E3E61846F8E61E
:1004A0004B45A9D2B9EB020864EB0C0E0138A3E767
:1004B0004646EAE7204694E74046D1E7D0467BE748
:1004C000023B614432E7304609E76444023842E7C0
:1004D000704700BF08B50368B3F1804F00D008BD76
:1004E00001F048FAFBE772B6FEE7000000B595B0F0
:1004F0003022002108A803F0C5FD002303930493D4
:100500000593069307930193204A116C41F08051A3
:100510001164126C02F080520192019A02931C4BFA
:100520001A6842F480421A601B6803F48043029305
:10053000029B012308934FF48033099302220E9209
:100540004FF480030F9304231093A821119112926A
:10055000139308A800F034FB98B90F2303930223E8
:100560000493002305934FF4A05306934FF4805354
:100570000793052103A800F089FD20B915B05DF8A7
:1005800004FBFFF7B0FFFFF7AEFF00BF00380240EB
:100590000070004008B501F0D3F9FFF7A7FF00F0A5
:1005A0000DF803F023FC00F025F800F0C3F803F089
:1005B0005BFC01F07BFE03F069FCFEE782B00021EA
:1005C00000910B4B1A6B42F080021A631A6B02F017
:1005D00080020092009A01911A6B42F001021A63A4
:1005E0001B6B03F001030193019B02B0704700BF36
:1005F0000038024008B50E480E4B03604FF482737A
:10060000436000238360C360036143614FF4007261
:1006100082611822C2610362436283620A23C36259
:1006200000F0D4F900B908BDFFF75DFFFBE700BF9C
:10063000EC0000200030014030B589B00023039366
:1006400004930593069307930268344B9A4201D0B2
:1006500009B030BD04460025019503F584335A6C7A
:1006600042F480525A645A6C02F480520192019A08
:1006700002951A6B42F001021A631B6B03F001032F
:100680000293029BE0230393022304930323069324
:100690000523079303A9224800F0ECFD2148224BD3
:1006A00003604FF0C06343608560C5604FF48063B2
:1006B000036145618561C5614FF4003303624562A2
:1006C00000F034FF18BB174BE3649C631748184BCA
:1006D00003604FF0C0634360402383600023C36026
:1006E0004FF48062026143618361C36103624362CC
:1006F00000F01CFF70B90D4BA3649C630022052120
:10070000232001F0D7F8232001F00CF9A0E7FFF730
:10071000EAFED8E7FFF7E7FEEDE700BF0030014053
:10072000000002402C000020106402408C000020D9
:100730005864024008B50A480A4B03604FF4E1339D
:10074000436000238360C36003610C2242618361C4
:10075000C36101F09BFB00B908BDFFF7C4FEFBE7D6
:10076000040200200010014030B589B0002303933B
:100770000493059306930793026803F1804303F5FE
:1007800088339A4201D009B030BD04460025019556
:1007900003F594335A6C42F010025A645A6C02F01A
:1007A00010020192019A02951A6B42F001021A633B
:1007B0001B6B03F001030293029B4FF4C06303938E
:1007C00002230493032306930723079303A92148D5
:1007D00000F050FD2048214B03604FF00063436060
:1007E0008560C5604FF48063036145618561C561C3
:1007F0004FF400330362456200F098FE18BB164BBD
:10080000E3639C631648174B03604FF0006343603B
:10081000402383600023C3604FF480620261436120
:100820008361C3610362436200F080FE70B90C4BC8
:10083000A3639C6300220521252001F03BF82520BD
:1008400001F070F89FE7FFF74EFED8E7FFF74BFE89
:10085000EDE700BF00000240440100204064024078
:10086000A4010020B8640240FEE7FEE7FEE7FEE7D1
:10087000FEE7704708B5024801F0D8F808BD00BF90
:100880004C02002008B5024800F000F908BD00BF86
:10089000EC00002008B5024801F0B4FB08BD00BF21
:1008A0000402002008B5024800F004FF08BD00BFA4
:1008B0002C00002008B5024800F0FCFE08BD00BF77
:1008C0004401002008B5024800F0F4FE08BD00BF56
:1008D0008C00002008B5024800F0ECFE08BD00BF07
:1008E000A401002000B583B0002200920D4B596C8A
:1008F00041F480415964596C01F4804100910099A0
:100900000192196C41F0805119641B6C03F0805303
:100910000193019B0F216FF0010000F0CBFF03B0AA
:100920005DF804FB0038024030B589B0044600236E
:100930000193224B1A6C42F001021A641B6C03F003
:1009400001030193019B02A903A800F075FC069B1B
:10095000D3B900F051FC03461948A0FB03239B0CBC
:10096000013B18484FF08042026040F2E732C2601B
:100970004360002303618360836101F073F90546DE
:1009800030B1284609B030BD00F036FC4300E3E743
:100990000C4801F003F805460028F2D11C2000F0B5
:1009A000C1FF0F2C01D90125EBE7002221461C20B5
:1009B00000F080FF044B1C60E3E700BF00380240FA
:1009C00083DE1B434C0200200400002000285AD084
:1009D00010B50446436A33B94368B3F5827F05D046
:1009E0000023C36102E00023036143610023A3628B
:1009F00094F85130002B40D0022384F85130226803
:100A0000136823F040031360636803F48273A268E1
:100A100002F404421343E26802F4006213432269C1
:100A200002F002021343626902F001021343A26959
:100A300002F400721343E26902F038021343226A9F
:100A400002F080021343A26A02F4005221681343A9
:100A50000B60638B03F00403626A02F010022168EA
:100A600013434B602268D36923F40063D3610020F1
:100A70006065012384F8513010BD84F85030204661
:100A8000FFF7DAFDB8E701207047704730B585B051
:100A90000446026851689368C3F3801013F0400F56
:100AA00005D113F0010F02D011F0400F69D113F0FE
:100AB000020F02D011F0800F67D1C3F3401513F07D
:100AC000200F03D110B913F4807F61D011F0200FF3
:100AD0005ED078B194F85100C0B203285AD0606D4E
:100AE00040F00400606500200090D068009090689D
:100AF0000090009865B1606D40F0010060650020D5
:100B0000029090680290106820F040001060029AF5
:100B100013F4807F09D0636D43F0080363650023FD
:100B2000039323689B680393039B636D002B2FD073
:100B30002268536823F0E0035360012384F85130A6
:100B400011F0030F2ED02268536823F00303536083
:100B5000E36C4BB1154A1A65E06C00F097FD18B1D3
:100B6000636D43F040036365A36C8BB10F4A1A6554
:100B7000A06C00F08BFD58B1636D43F040036365DA
:100B800006E0236C2046984702E0636C20469847B5
:100B900005B030BD00230193D3680193936801939E
:100BA000019BF5E72046FFF770FFF1E7B10B000866
:100BB00008B5806B0023C387C386FFF766FF08BDB7
:100BC000002800F0E08170B582B00446036813F09D
:100BD000010F3BD09F4B9B6803F00C03042B2CD0E0
:100BE0009C4B9B6803F00C03082B21D06368B3F582
:100BF000803F4FD0B3F5A02F52D0964B1A6822F405
:100C000080321A601A6822F480221A606368002B0E
:100C100050D000F0BBFE05468E4B1B6813F4003F1E
:100C200014D100F0B3FE401B6428F5D90320B1E1D4
:100C3000884B5B6813F4800FD8D0864B1B6813F485
:100C4000003F03D06368002B00F09F81236813F0FE
:100C5000020F54D07F4B9B6813F00C0F3ED07D4B9E
:100C60009B6803F00C03082B33D0E368002B68D09B
:100C7000794B01221A6000F089FE0546754B1B680E
:100C800013F0020F54D100F081FE401B0228F5D969
:100C900003207FE16F4A136843F480331360B5E7A4
:100CA0006C4B1A6842F480221A601A6842F480324F
:100CB0001A60ABE700F06AFE0546664B1B6813F44A
:100CC000003FC3D000F062FE401B6428F5D903202A
:100CD00060E1604B5B6813F4800FC6D15D4B1B680D
:100CE00013F0020F03D0E368012B40F05081594A02
:100CF000136823F0F803216943EAC10313602368F2
:100D000013F0080F42D063696BB3534B0122C3F851
:100D1000802E00F03BFE05464E4B5B6F13F0020F3A
:100D200034D100F033FE401B0228F5D9032031E115
:100D3000484A136823F0F803216943EAC1031360AA
:100D4000DDE7454B00221A6000F020FE0546414BCE
:100D50001B6813F0020FD2D000F018FE401B0228CF
:100D6000F5D9032016E13C4B0022C3F8802E00F099
:100D70000DFE0546374B5B6F13F0020F06D000F0F7
:100D800005FE401B0228F5D9032003E1236813F078
:100D9000040F77D02F4B1B6C13F0805F33D10023EF
:100DA00001932C4B1A6C42F080521A641B6C03F0B6
:100DB00080530193019B0125284B1B6813F4807F0E
:100DC00023D0A368012B34D0052B38D0214B1A6FC8
:100DD00022F001021A671A6F22F004021A67A36850
:100DE000002B3DD000F0D2FD06461A4B1B6F13F0CE
:100DF000020F46D100F0CAFD801B41F288339842B1
:100E0000F3D90320C6E00025D6E7144A136843F45B
:100E10008073136000F0BAFD0646104B1B6813F494
:100E2000807FCED100F0B2FD801B0228F5D90320CF
:100E3000B0E0084A136F43F001031367CFE7054B97
:100E40001A6F42F004021A671A6F42F001021A6721
:100E5000C5E700BF00380240000047420070004074
:100E600000F094FD0646524B1B6F13F0020F08D0A2
:100E700000F08CFD801B41F288339842F3D90320A7
:100E800088E0EDB9A369002B00F08380484A92689E
:100E900002F00C02082A51D0022B17D0454B002239
:100EA0001A6600F073FD0446414B1B6813F0007F87
:100EB00042D000F06BFD001B0228F5D9032069E049
:100EC0003B4A136C23F080531364DBE7394B002259
:100ED0001A6600F05BFD0546354B1B6813F0007F7A
:100EE00006D000F053FD401B0228F5D9032051E045
:100EF000E369226A1343626A43EA8213A26A5208D0
:100F0000013A43EA0243E26A43EA0263284A536031
:100F1000284B01221A6600F039FD0446244B1B6859
:100F200013F0007F06D100F031FD001B0228F5D937
:100F300003202FE000202DE000202BE0012B2BD000
:100F40001B4B5B6803F48001E269914226D103F0F8
:100F50003F02216A8A4223D1616A47F6C0721A4071
:100F6000B2EB811F1ED103F44031A26A5208013A4C
:100F7000B1EB024F18D103F07063E26AB3EB026F7A
:100F800014D1002006E001207047012002E001207A
:100F900000E0002002B070BD0120FBE70120F9E76E
:100FA0000120F7E70120F5E70120F3E70120F1E751
:100FB000003802400000474208B5314B9B6803F0FF
:100FC0000C03042B57D0082B57D12D4B5A6802F035
:100FD0003F025B6813F4800F2AD0294B5968C1F394
:100FE000881C4FEA4C11B1EB0C006EEB0E0E4FEA71
:100FF0008E1343EA90638101091A63EB0E03DB0051
:1010000043EA5173C90011EB0C0C43F10003590280
:1010100000234FEA4C2041EADC51FFF7D9F8184B86
:101020005B68C3F3014301335B00B0FBF3F025E0E1
:10103000134B5968C1F3881C4FEA4C11B1EB0C00FB
:101040006EEB0E0E4FEA8E1343EA90638101091A8C
:1010500063EB0E03DB0043EA5173C90011EB0C0C88
:1010600043F10003990200234FEA8C2041EA9C518E
:10107000FFF7AEF8D3E7034800E0034808BD00BF20
:101080000038024000127A000024F400002800F02A
:101090009B8070B50D4604464F4B1B6803F0070359
:1010A0008B4208D2CBB24C4A1370136803F007038B
:1010B0008B4240F08B80236813F0020F17D013F09F
:1010C000040F04D0454A936843F4E05393602368C7
:1010D00013F0080F04D0414A936843F460439360CF
:1010E0003E4A936823F0F003A1680B4393602368A2
:1010F00013F0010F32D06368012B21D09A1E012A10
:1011000025D9364A126812F0020F61D033498A6835
:1011100022F0030213438B6000F038FC06462F4B8D
:101120009B6803F00C036268B3EB820F16D000F0EB
:101130002DFC801B41F288339842F0D9032042E015
:10114000264A126812F4003FE0D101203BE0234A16
:10115000126812F0007FD9D1012034E01E4B1B68C9
:1011600003F00703AB4207D9EAB21B4B1A701B68A6
:1011700003F00703AB422DD1236813F0040F06D010
:10118000164A936823F4E053E1680B4393602368A5
:1011900013F0080F07D0114A936823F460432169C4
:1011A00043EAC1039360FFF707FF0C4B9B68C3F34F
:1011B00003130B4AD35CD8400A4B18600A4B1868DB
:1011C000FFF7B2FB002070BD012070470120FAE755
:1011D0000120F8E70120F6E7003C02400038024019
:1011E000B44000080800002004000020014B1868EB
:1011F000704700BF0800002008B5FFF7F7FF044B59
:101200009B68C3F38223034AD35CD84008BD00BF68
:1012100000380240C440000808B5FFF7E7FF044B60
:101220009B68C3F34233034AD35CD84008BD00BF78
:1012300000380240C44000080F2303600B4B9A683B
:1012400002F0030242609A6802F0F00282609A683B
:1012500002F4E052C2609B68DB0803F4E0530361D0
:10126000034B1B6803F007030B6070470038024014
:10127000003C024000230F2B00F2E48070B582B0E6
:1012800060E085685E000324B44025EA0405CC686C
:10129000B4402C438460456825EA02054C68C4F3D9
:1012A00000129A402A4342605AE0DC08083450F8A1
:1012B000246003F0070295000F22AA4026EA020EDE
:1012C0000A69AA4042EA0E0240F824205CE00722A4
:1012D00000E0002202FA0EF22A4302345A4D45F889
:1012E00024205A4A94686FEA0C0224EA0C054E68DE
:1012F00016F4801F01D04CEA0405544CA560E46844
:1013000002EA04054E6816F4001F01D04CEA0405F9
:101310004E4CE560646802EA04054E6816F4003F2E
:1013200001D04CEA0405494C6560246822404D68B0
:1013300015F4803F01D04CEA0402444C2260013392
:101340000F2B7DD801229A400C6804EA020C32EA85
:101350000404F4D14C6804F00304013C012C90D93E
:101360004A6802F00302032A09D0C4685D00032220
:10137000AA4024EA02048A68AA402243C2604A685A
:1013800002F00302022A90D004684FEA430E0322BF
:1013900002FA0EF224EA02044A6802F0030202FA98
:1013A0000EF2224302604A6812F4403FC7D0002286
:1013B0000192274A546C44F480445464526C02F401
:1013C00080420192019A9C08A51C1F4A52F82550A0
:1013D00003F003024FEA820E0F2202FA0EF225EA10
:1013E00002051C4A90423FF474AF02F580629042BD
:1013F0001AD002F58062904218D002F580629042C5
:1014000016D002F58062904214D002F580629042BC
:1014100012D002F58062904210D002F580629042B4
:101420003FF455AF082255E7012253E7022251E766
:1014300003224FE704224DE705224BE7062249E746
:1014400002B070BD704700BF00380140003C014051
:10145000003802400000024010B40368D9B21039CD
:101460000C4AA2FB014212090B4CA25CC2655F2927
:1014700009D923F47F7323F0030304338365806D5C
:101480005DF8044B704723F47F7323F003038365F7
:10149000F5E700BFABAAAAAAAC400008836A82693C
:1014A00092B9012B0AD0022B02D00BB10020704759
:1014B000C36A13F0807F28D100207047C36AB3F15C
:1014C000C07F24D000207047B2F5005F09D0022B06
:1014D00025D9032B25D1C36A13F0807F23D10020A7
:1014E0007047032B03D8DFE803F01404140A00202C
:1014F0007047C36A13F0807F0DD100207047C36A24
:10150000B3F1C07F09D0002070470120704701204F
:10151000704701207047012070470120704701206B
:1015200070470020704701207047000070B50446E6
:1015300000F02CFA002C5BD00546022384F83530ED
:10154000002384F834302268136823F00103136009
:1015500023681A6812F0010F0AD000F017FA431B33
:10156000052BF5D920236365032084F8350070BD71
:101570001A68204810406168A2680A43E1680A437B
:1015800021690A4361690A43A1690A43E1690A437F
:10159000216A0A430243616A04291ED01A60266840
:1015A000756925F00705636A1D43042B07D1A36AFB
:1015B0001D43E36A1BB12046FFF770FF90B97561C8
:1015C0002046FFF749FFE26D3F23934083600020F0
:1015D0006065012384F83530C9E7E16A206B014377
:1015E0000A43DBE740236365012084F83500BEE74A
:1015F0000120BCE73F8010F070B50446866D00F016
:10160000C5F994F83530DBB2022B06D08023636530
:10161000002384F83430012070BD05462268136829
:1016200023F0160313602268536923F0800353618B
:10163000236CE3B12268136823F008031360226867
:10164000136823F00103136023681B6813F0010F74
:1016500011D000F09BF9431B052BF5D920236365BE
:10166000032084F83500002384F83430D4E7A36CD9
:10167000002BDFD1E3E7E26D3F239340B36001230A
:1016800084F83530002084F83400C5E790F8353010
:10169000DBB2022B03D08023436501207047052372
:1016A00080F835300268136823F0010313600020CE
:1016B00070470000F0B583B0044600230193724BDD
:1016C0001D68724BA3FB0535AD0A876D3E68C26D80
:1016D00008239340334210D003681A6812F0040FB5
:1016E0000BD01A6822F004021A60C26D08239340DE
:1016F000BB60436D43F001034365E26D01239340FA
:10170000334209D02268526912F0800F04D0BB60C6
:10171000636D43F002036365E26D0423934033423B
:1017200009D02268126812F0020F04D0BB60636D0A
:1017300043F004036365E26D10239340334224D0E9
:101740002268126812F0080F1FD0BB6023681A6865
:1017500012F4802F0DD01B6813F4002F04D1236CDA
:101760009BB12046984710E0A36C73B12046984780
:101770000BE01A6812F4807F03D11A6822F0080285
:101780001A60236C0BB120469847E26D20239340EA
:10179000334255D02268126812F0100F50D0BB604F
:1017A00094F83530DBB2052B0ED023681A6812F49A
:1017B000802F33D01B6813F4002F2AD1636C002BC9
:1017C0003ED0204698473BE02268136823F016037A
:1017D00013602268536923F080035361236CA3B123
:1017E0002268136823F008031360E26D3F239340DF
:1017F000BB60012384F83530002384F83430236D36
:10180000002B3FD0204698473CE0A36C002BE7D14B
:10181000EBE7E36BA3B12046984711E01A6812F496
:10182000807F09D11A6822F010021A60012384F81F
:101830003530002384F83430E36B0BB120469847F1
:10184000636DFBB1636D13F0010F17D0052384F8AE
:1018500035302268136823F001031360019B0133C4
:101860000193AB4204D823681B6813F0010FF5D134
:10187000012384F83530002384F83430E36C0BB155
:101880002046984703B0F0BD08000020B5814E1BEC
:10189000074AD36823F4E0631B041B0C000200F426
:1018A000E060034343F0BF6343F40033D360704709
:1018B00000ED00E000B5194BDB68C3F30223C3F170
:1018C000070CBCF1040F28BF4FF0040C03F1040E09
:1018D000BEF1060F18D9033B4FF0FF3E0EFA0CFC89
:1018E00021EA0C0199400EFA03F322EA030319439B
:1018F00000280BDB0901C9B200F1604000F561402E
:1019000080F800135DF804FB0023E5E700F00F000A
:101910000901C9B2024B1954F4E700BF00ED00E021
:1019200014ED00E0002807DB00F01F02400901234E
:101930009340024A42F82030704700BF00E100E0C7
:1019400008B50B4B1A6842F400721A601A6842F428
:1019500080621A601A6842F480721A600320FFF7EE
:1019600097FF0F20FEF7E0FFFEF7BCFF002008BD49
:10197000003C0240034A1168034B1B780B44136080
:10198000704700BF9402002000000020014B18683F
:10199000704700BF940200207047000090F83D306F
:1019A000DBB2012B37D1022380F83D300268D368C7
:1019B00043F00103D3600368194A934220D0B3F186
:1019C000804F1DD0A2F57C42934219D002F580626F
:1019D000934215D002F58062934211D002F578420D
:1019E00093420DD002F57052934209D0A2F5943281
:1019F000934205D01A6842F001021A600020704735
:101A00009A6802F00702062A07D01A6842F001021B
:101A10001A6000207047012070470020704700BF07
:101A200000000140704770477047704770B504462A
:101A30000368DE681D6915F0020F10D016F0020F62
:101A40000DD06FF002021A610123037703689B69CE
:101A500013F0030F5ED0FFF7E6FF0023237715F0A6
:101A6000040F12D016F0040F0FD023686FF0040299
:101A70001A610223237723689B6913F4407F4FD0B8
:101A80002046FFF7D0FF0023237715F0080F12D070
:101A900016F0080F0FD023686FF008021A610423B4
:101AA00023772368DB6913F0030F40D02046FFF74C
:101AB000BAFF0023237715F0100F12D016F0100F85
:101AC0000FD023686FF010021A6108232377236870
:101AD000DB6913F4407F31D02046FFF7A4FF0023D9
:101AE000237715F0010F02D016F0010F2DD115F05C
:101AF000800F02D016F0800F2FD115F0400F02D0CA
:101B000016F0400F31D115F0200F02D016F0200F43
:101B100033D170BDFFF786FF2046FFF785FF9CE7B6
:101B20002046FFF77FFF2046FFF77EFFABE720460A
:101B3000FFF778FF2046FFF777FFBAE72046FFF769
:101B400071FF2046FFF770FFC9E723686FF00102BD
:101B50001A612046FEF7BEFCC9E723686FF08002D9
:101B60001A61204600F0ABF8C7E723686FF0400227
:101B70001A612046FFF759FFC5E723686FF020027E
:101B80001A61204600F09AF8C3E700000368344A5F
:101B9000904212D0B0F1804F0FD0A2F57C4290421B
:101BA0000BD002F58062904207D002F5806290422D
:101BB00003D002F57842904203D123F070034A68C3
:101BC0001343274A90422AD0B0F1804F27D0A2F584
:101BD0007C42904223D002F5806290421FD002F5F1
:101BE000806290421BD002F57842904217D002F5F5
:101BF0007052904213D002F5806290420FD002F5ED
:101C0000806290420BD0A2F59832904207D002F544
:101C10008062904203D002F58062904203D123F4A7
:101C20004073CA68134323F080034A691343036077
:101C30008B68C3620B688362094B984203D003F53B
:101C40008063984201D10B690363012343610369F7
:101C500013F0010F03D0036923F001030361704700
:101C60000000014040B310B5044690F83D30F3B198
:101C7000022384F83D30214651F8040BFFF786FF1C
:101C8000012384F8463084F83E3084F83F3084F8ED
:101C9000403084F8413084F8423084F8433084F88E
:101CA000443084F8453084F83D30002010BD80F881
:101CB0003C30FFF771FEDBE701207047704770474B
:101CC000026802F10C0353E8003F23F490730C32D6
:101CD00042E800310029F3D1026802F1140353E80D
:101CE000003F23F00103143242E800310029F3D110
:101CF000036B012B05D0202380F8423000230363BF
:101D00007047026802F10C0353E8003F23F0100310
:101D10000C3242E800310029F3D1ECE790F8413071
:101D2000DBB2212B01D0022070478368B3F5805FBE
:101D300017D0036A5A1C02621A7803685A60C38C6F
:101D40009BB2013B9BB2C3844BB90268D36823F0BA
:101D50008003D3600268D36843F04003D36000205F
:101D600070470369002BE4D1036A1B880268C3F340
:101D700008035360036A02330362E0E738B50446A0
:101D80000268136923F44053C1680B4313618368ED
:101D90000269134342691343C2691A430168CB685D
:101DA00023F4164323F00C031343CB6002685369FA
:101DB00023F4407381690B4353610368314A9342B2
:101DC00006D002F58062934202D0FFF715FA01E0D7
:101DD000FFF722FAE369B3F5004F29D00021031879
:101DE00049411B1841F10001C90041EA5371DB0070
:101DF000181863684FEA83024FEA937341F10001B8
:101E0000FEF7E6F9204DA5FB00325109642303FBE0
:101E100011031B013233A5FB03235B0903F0F0021E
:101E200002EB011203F00F03216813448B6038BDED
:101E30000023021843EB0301121841F10001C9000D
:101E400041EA5271D200101841F100016268921803
:101E50005B41FEF7BDF90C4DA5FB0032510964232F
:101E600003FB1103DB003233A5FB03235B095A009C
:101E700002F4F87202EB011203F007032168134425
:101E80008B60D4E7001001401F85EB5160B310B5A3
:101E9000044690F8413013B3242384F8413022687B
:101EA000D36823F40053D3602046FFF767FF22680E
:101EB000136923F4904313612268536923F02A03C2
:101EC00053612268D36843F40053D36000206064F8
:101ED000202384F8413084F84230606310BD80F8DC
:101EE0004030FEF741FCD7E701207047704708B546
:101EF0000168CA6822F04002CA60202280F84120AE
:101F0000FFF7F4FF002008BD7047704708B5806BED
:101F10000023C385C384FFF7F8FF08BD704790F81E
:101F20004230DBB2222B69D18368B3F5805F4FD09A
:101F3000826AB3F5805F04D0002B56D10369002B71
:101F400053D103685B681370836A01338362C38D66
:101F50009BB2013B9BB2C385002B51D100B583B02E
:101F60000268D36823F02003D3600268D36823F4A7
:101F70008073D3600268536923F001035361202307
:101F800080F8423000234363036B012B33D10023DD
:101F90000363026802F10C0353E8003F23F01003CF
:101FA0000C3242E800310029F3D103681A6812F0BC
:101FB000100F06D0002201921A6801925B6801930B
:101FC000019B818DFFF7AAFF002003B05DF804FBA1
:101FD0000269002AACD1826A03685B68C3F3080314
:101FE0001380836A02338362B1E703685B6803F09E
:101FF0007F031370A8E7FFF787FFE5E7022070472C
:102000000020704730B583B0044602681368D0687A
:10201000516913F00F0505D113F0200F02D010F015
:10202000200F19D12DB111F0010119D110F4907FB9
:1020300016D1216B01297DD013F0800F03D010F051
:10204000800F40F0198113F0400F03D010F0400FC3
:1020500040F0168103B030BD2046FFF760FFF9E77E
:1020600013F0010F06D010F4807F03D0626C42F0B1
:102070000102626413F0040F04D019B1626C42F0E3
:102080000202626413F0020F04D019B1626C42F0D4
:102090000402626413F0080F07D010F0200F00D183
:1020A00019B1626C42F008026264626C002AD1D0FD
:1020B00013F0200F02D010F0200F29D123685B69A4
:1020C00003F04003626C12F0080F00D163B32046A6
:1020D000FFF7F6FD23685B6913F0400F20D02268FC
:1020E00002F1140353E8003F23F04003143242E8A6
:1020F00000310029F3D1E36B73B1634A1A65E06BD9
:10210000FFF7C4FA0028A5D0E06B036D9847A1E75C
:102110002046FFF704FFD1E72046FFF7F6FE99E7D8
:102120002046FFF7F2FE95E72046FFF7EEFE00237C
:1021300063648FE713F0100F3FF47EAF10F0100FC1
:102140003FF47AAF0023019313680193536801931E
:10215000019B536913F0400F52D0E26B13685B6828
:102160009BB2002B3FF476AFA18D99427FF672AF00
:10217000E385D369B3F5807F37D0226802F10C0381
:1021800053E8003F23F480730C3242E80031002909
:10219000F3D1226802F1140353E8003F23F0010356
:1021A000143242E800310029F3D1226802F114030D
:1021B00053E8003F23F04003143242E80031002985
:1021C000F3D1202384F8423000232363226802F1F4
:1021D0000C0353E8003F23F010030C3242E80031B7
:1021E0000029F3D1E06BFFF707FA02236363A18DA7
:1021F000E38D9BB2C91A89B22046FFF78FFE29E70B
:10220000A18DE38D9BB2C91A89B2E38D9BB2002BDD
:102210003FF420AF00293FF41DAF226802F10C0308
:1022200053E8003F23F490730C3242E8003000285A
:10223000F3D1226802F1140353E8003F23F00103B5
:10224000143242E800300028F3D1202384F84230D1
:1022500000232363226802F10C0353E8003F23F0BC
:1022600010030C3242E800300028F3D102236363EC
:102270002046FFF753FEEDE62046FFF74FFDE9E667
:102280002046FFF734FEE5E60D1F0008034AD2F8AA
:10229000883043F47003C2F88830704700ED00E0E6
:1022A00008B5012001F06CFEFBE7000008B5044A08
:1022B0000021044801F006FE034B186008BD00BF72
:1022C000D8400008A12200089802002000F108036D
:1022D00043604FF0FF328260C360036100230360FC
:1022E000704700230361704743684B609A688A60B7
:1022F000516099600861036801330360704730B42E
:102300000D68B5F1FF3F11D000F108031C465B6872
:102310001A68AA42FAD963684B6099608C60616060
:10232000086103680133036030BC70470469F2E759
:102330000369416882688A60416851605A688242D4
:1023400006D0002202611A68013A1A6018687047C4
:1023500082685A60F5E710B5044601F0F3FBA26B02
:10236000E36B9A4204D0002401F00EFC204610BD1D
:102370000124F9E710B5044601F0E4FBA36B23B98F
:10238000012401F001FC204610BD0024F9E770B5DE
:1023900004461546866B026C5AB903681BB10020CF
:1023A0000136A66370BD806800F0D4FF0023A360EF
:1023B000F6E76DB9406801F057FE226C636813447C
:1023C0006360A268934219D3236863602846E7E7F5
:1023D000C06801F049FE226C5142E3689B1AE36039
:1023E0002268934202D2A3680B44E360022D01D01D
:1023F0000020D5E726B1013E0020D1E72846CFE7EF
:102400000020CDE70346026C6AB110B50846D968D2
:102410001144D9609C68A14201D31968D960D96878
:1024200001F022FE10BD704738B5054601F08AFB69
:1024300095F8454064B201E0013C64B2002C0ADD2D
:102440006B6A43B105F1240000F0DAFE0028F3D0F6
:1024500000F06AFFF0E7FF2385F8453001F094FBB8
:1024600001F070FB95F8444064B201E0013C64B2B5
:10247000002C0ADD2B6943B105F1100000F0C0FE0D
:102480000028F3D000F050FFF0E7FF2385F8443038
:1024900001F07AFB38BD38B5E0B10D46044601F0D5
:1024A00051FB2368E26B216C01FB0230A06000202D
:1024B000A0636360013A02FB0133E360FF2384F809
:1024C000443084F84530FDB9236963B901F05CFB01
:1024D000012038BD4FF0500383F31188BFF36F8F95
:1024E000BFF34F8FFEE704F1100000F089FE0028D3
:1024F000ECD04FF0E0234FF08052C3F8042DBFF32F
:102500004F8FBFF36F8FE1E704F11000FFF7DEFE9E
:1025100004F12400FFF7DAFED8E738B51D46049C25
:102520000B4649B92460E063236401212046FFF78C
:10253000B2FF84F84C5038BD2260F4E740B94FF048
:10254000500383F31188BFF36F8FBFF34F8FFEE704
:1025500010B584B01C46844653B192B189B94FF08E
:10256000500383F31188BFF36F8FBFF34F8FFEE7E4
:102570004FF0500383F31188BFF36F8FBFF34F8F7A
:10258000FEE76AB150230393039B502B13D04FF007
:10259000500383F31188BFF36F8FBFF34F8FFEE7B4
:1025A0000029EFD04FF0500383F31188BFF36F8FF2
:1025B000BFF34F8FFEE7039B012384F8463000945E
:1025C0009DF818306046FFF7A8FF204604B010BD04
:1025D000F0B585B0019288B10F461D460446B1B1F1
:1025E000022D20D1E36B012B1DD04FF0500383F35C
:1025F0001188BFF36F8FBFF34F8FFEE74FF050038B
:1026000083F31188BFF36F8FBFF34F8FFEE7036C27
:10261000002BE5D04FF0500383F31188BFF36F8F89
:10262000BFF34F8FFEE700F085FE064658B9019BC9
:10263000002B48D04FF0500383F31188BFF36F8F06
:10264000BFF34F8FFEE700263DE02A46394620467D
:10265000FFF79DFE636A7BB948B14FF0E0234FF06E
:102660008052C3F8042DBFF34F8FBFF36F8F01F07B
:102670008BFA012005B0F0BD04F1240000F0C0FD8C
:102680000028F4D04FF0E0234FF08052C3F8042D1F
:10269000BFF34F8FBFF36F8FE9E701F075FA0020AA
:1026A000E8E702A800F0F2FD012619E0002384F813
:1026B000443021E0002384F8453023E02046FFF732
:1026C000B3FE00F07DFC01F03DFAA26BE36B9A4291
:1026D000BBD3022DB9D0019B002BDED0002EE0D061
:1026E00001F052FA00F0D2FB01F02CFA94F84420E9
:1026F00052B2B2F1FF3FD9D094F8452052B2B2F1B4
:10270000FF3FD7D001F040FA01A902A800F0CAFDAE
:10271000D8B92046FFF71FFE0028CFD0019904F159
:10272000100000F039FD2046FFF77EFE00F048FC67
:102730000028C8D14FF0E0234FF08052C3F8042D99
:10274000BFF34F8FBFF36F8FBDE72046FFF76CFEDF
:1027500000F036FC00208DE72DE9F84390B10F46DC
:1027600016461C460546B1B1022C20D1EB6B012B5D
:102770001DD04FF0500383F31188BFF36F8FBFF369
:102780004F8FFEE74FF0500383F31188BFF36F8F35
:10279000BFF34F8FFEE7036C002BE5D04FF05003E3
:1027A00083F31188BFF36F8FBFF34F8FFEE701F004
:1027B000EFFAEFF311894FF0500383F31188BFF361
:1027C0006F8FBFF34F8FAA6BEB6B9A4206D3022C2D
:1027D00004D0002089F31188BDE8F88395F845807E
:1027E0004FFA88F8AB6B224639462846FFF7CFFDF3
:1027F000B8F1FF3F06D008F101035BB285F8453020
:102800000120E7E76B6A0BB90120E3E705F124003B
:1028100000F0F6FC18B126B101203060DAE70120A3
:10282000D8E70120D6E7F0B585B0019290B10F4608
:102830000446C1B100F07EFD064600BB019B002BA3
:102840005ED04FF0500383F31188BFF36F8FBFF357
:102850004F8FFEE74FF0500383F31188BFF36F8F64
:10286000BFF34F8FFEE7036C002BE3D04FF0500314
:1028700083F31188BFF36F8FBFF34F8FFEE70026FE
:102880003EE039462046FFF7BDFD013DA5632369C3
:1028900023B901F079F9012005B0F0BD04F1100071
:1028A00000F0AEFC0028F4D04FF0E0234FF080524F
:1028B000C3F8042DBFF34F8FBFF36F8FE9E701F02B
:1028C00063F90020E8E702A800F0E0FC012621E01F
:1028D000002384F8443029E0002384F845302BE0BD
:1028E0002046FFF7A1FD00F06BFB09E02046FFF753
:1028F0009BFD00F065FB2046FFF73CFD00283FD123
:1029000001F020F9A56B002DBBD1019B002BD6D087
:10291000002ED8D001F038F900F0B8FA01F012F921
:1029200094F844305BB2B3F1FF3FD1D094F8453016
:102930005BB2B3F1FF3FCFD001F026F901A902A8A5
:1029400000F0B0FC0028D1D12046FFF713FD00288D
:10295000C6D0019904F1240000F01EFC2046FFF7C8
:1029600063FD00F02DFB0028CAD14FF0E0234FF0AB
:102970008052C3F8042DBFF34F8FBFF36F8FBFE7B3
:10298000002089E70023072B0CD8074A52F8332090
:102990000AB10133F7E7044A42F8331002EBC303EC
:1029A00058607047704700BF9C02002070B5044615
:1029B0000D46164601F0C6F894F844305BB2B3F108
:1029C000FF3F0DD094F845305BB2B3F1FF3F0BD021
:1029D00001F0DAF8A36B5BB12046FFF725FD70BD6F
:1029E000002384F84430EDE7002384F84530EFE716
:1029F0003246294604F1240000F0E6FBECE7000033
:102A0000084B1B681B6823B9074B4FF0FF321A6055
:102A10007047044B1B68DB68DB685A68024B1A601E
:102A2000704700BFE0020020880700202DE9F04732
:102A300080460D4617469946089EDDF824A00A9C5C
:102A40009200A521206B01F01DFB236B07F1804252
:102A5000013A03EB820727F00707B5B34FF0000CEC
:102A6000BCF10F0F0BD815F80C2004EB0C0383F806
:102A7000342015F80C3013B10CF1010CF0E70023F1
:102A800084F84330372E00D93726E662E664002505
:102A90002565201DFFF725FC04F11800FFF721FC38
:102AA0002461C6F13806A6616462656584F85850F1
:102AB0004A464146384601F01DF82060BAF1000F41
:102AC00001D0CAF80040BDE8F087002384F8343014
:102AD000D8E7000038B5002407E004EB8402930037
:102AE0000E481844FFF7F2FB0134372CF5D90C4D92
:102AF0002846FFF7EBFB0B4C2046FFF7E7FB0A48A5
:102B0000FFF7E4FB0948FFF7E1FB0948FFF7DEFBAD
:102B1000084B1D60084B1C6038BD00BFE802002058
:102B20005C0700207007002094070020C0070020E9
:102B3000AC070020E0020020E402002010B50446AB
:102B400001F000F8224A136801331360214B1B681F
:102B50005BB1214B1B686BB91E4B1B68DA6AE36AD9
:102B60009A4207D81B4B1C6004E01A4B1C60136888
:102B7000012B29D0194A1368013313606364E06A9A
:102B8000174B1B68984201D9154B186000EB800069
:102B9000211D144B03EB8000FFF7A6FB00F0F4FFB0
:102BA0000D4B1B687BB10B4B1B68DA6AE36A9A42D8
:102BB00009D24FF0E0234FF08052C3F8042DBFF349
:102BC0004F8FBFF36F8F10BDFFF784FFD2E700BFB9
:102BD00048070020DC020020A8070020540700203E
:102BE00058070020E802002010B5044690F859303C
:102BF00063B1012B11D0022B0ED04FF0500383F3A1
:102C00001188BFF36F8FBFF34F8FFEE7006B00F0AB
:102C1000F5FE204600F0F2FE10BD00F0EFFEFBE7EF
:102C20000F4B1B68D3B110B500F08CFF0D4BDB6868
:102C3000DC68201DFFF77CFB0B4A1368013B136027
:102C4000074A1368013B136000F09EFF2046FFF720
:102C5000CBFF034B1B68002BE6D110BD704700BFB4
:102C60004C070020C00700204807002008B5FFF7E8
:102C7000D7FF074B1B68012BF9D94FF0E0234FF02A
:102C80008052C3F8042DBFF34F8FBFF36F8FEEE771
:102C9000E802002070B504460D46174B1E68174B1E
:102CA00018680430FFF744FBB4F1FF3F0DD0344403
:102CB000124B1B685C60A64210D9114B18680F4B71
:102CC00019680431FFF71BFB70BD002DEFD00B4BD3
:102CD000196804310B48FFF707FBF5E70A4B186842
:102CE000064B19680431FFF70AFB084B1B68A34227
:102CF000EAD9064B1C60E7E7D4070020DC0200207D
:102D0000E4020020AC070020E00200208807002039
:102D100030B587B00B9C7CB10C9DB5B15C2504959A
:102D2000049D5C2D1AD04FF0500383F31188BFF33C
:102D30006F8FBFF34F8FFEE74FF0500383F311887F
:102D4000BFF36F8FBFF34F8FFEE74FF0500383F356
:102D50001188BFF36F8FBFF34F8FFEE7049D0C9D6B
:102D60002C63022485F8594000240394029505AC95
:102D700001940A9C0094FFF759FE0C98FFF7DEFEC1
:102D8000059807B030BD2DE9F04385B00746884669
:102D900014461E46900000F0B3FD00B381465C204F
:102DA00000F0AEFD0546B0B1C0F83090E5B10023AB
:102DB00085F85930039302950D9B01930C9B00936A
:102DC0003346224641463846FFF730FE2846FFF795
:102DD000B5FE012005E0484600F010FEE6E74FF0A2
:102DE000FF3005B0BDE8F0834FF0FF30F9E7000099
:102DF00010B588B000240594069407AA06A905A872
:102E000001F0CCF8059B0293069B019300942346A6
:102E1000079A18491848FFF77BFF184B186040B114
:102E200000F04CFB012806D0B0F1FF3F18D008B0ED
:102E300010BD0020F6E74FF0500383F31188BFF375
:102E40006F8FBFF34F8F0E4B4FF0FF321A600D4B59
:102E500001221A600C4B00221A6000F00DFFE6E719
:102E60004FF0500383F31188BFF36F8FBFF34F8F81
:102E7000FEE700BFFC4000086D2C0008840700201E
:102E800088070020A8070020D4070020024A136802
:102E900001331360704700BF50070020014B1868D2
:102EA000704700BFD4070020F8B53A4B1B68002BD1
:102EB00069D1394B1D6801351D60C5B9374B1B6899
:102EC0001B6843B14FF0500383F31188BFF36F8F3A
:102ED000BFF34F8FFEE7314A1168314B186810601D
:102EE0001960304A136801331360FFF789FD2E4BD8
:102EF0001B68AB423DD900272C4B1B68DB6A03EBF8
:102F000083039A002A4B9B58012B00D90127294B98
:102F10001B68002B3CD001273AE001271F4B1B68A0
:102F20001B6843B31D4B1B68DB68DC6863689D420C
:102F300026D3261D3046FFF7FBF9A36A1BB104F127
:102F40001800FFF7F5F9E36A1B4A1268934201D9AA
:102F5000194A136003EB83039A0031461448104466
:102F6000FFF7C2F9E26A114B1B68DB6A9A42D4D2BE
:102F7000D4E70027D2E70C4B4FF0FF321A60BBE7D3
:102F8000094A1360B8E70D4A13680133136000273C
:102F90003846F8BD50070020D4070020E00200208A
:102FA000E40200208C07002088070020DC020020BB
:102FB000E8020020D80700205807002090070020D2
:102FC00038B5354B1B6843B94FF0500383F3118874
:102FD000BFF36F8FBFF34F8FFEE700F0B3FD2E4BB3
:102FE0001A68013A1A601B68002B4FD12B4B1B68E3
:102FF0000BB900244BE00024294B1B681BB3284B62
:10300000DB68DC6804F11800FFF792F9251D2846FB
:10301000FFF78EF9E06A234B1B68984201D9214BD8
:10302000186000EB800029461F4B03EB8000FFF780
:103030005BF9E26A1D4B1B68DB6A9A42DCD31C4BCE
:1030400001221A60D8E70CB1FFF7DAFC194B1C68B3
:1030500084B9174B1C68D4B14FF0E0234FF0805275
:10306000C3F8042DBFF34F8FBFF36F8F01240EE021
:10307000013C07D0FFF718FF0028F9D00C4B0122C4
:103080001A60F5E70B4B00221A60E2E7002400F01B
:103090007BFD204638BD00BF5007002048070020B8
:1030A0009407002058070020E8020020DC020020DE
:1030B000D80700209007002010B5A8B10446104B97
:1030C0001B6843B14FF0500383F31188BFF36F8F38
:1030D000BFF34F8FFEE7FFF7D9FE00212046FFF731
:1030E000D9FDFFF76DFF48B94FF0E0234FF0805254
:1030F000C3F8042DBFF34F8FBFF36F8F10BD00BF18
:10310000500700201F4B1B681BB11F4B01221A6088
:1031100070471D4B00221A601C4B1B6803EB830198
:103120008A001B498A585AB90BB1013BF6E74FF0A8
:10313000500383F31188BFF36F8FBFF34F8FFEE708
:1031400003EB830082000A4450684068506003EB40
:10315000830C4FEA8C020832114488420BD003EBF7
:10316000830291000A4A0A445268D168094A1160F0
:10317000064A13607047406862469100044A0A4458
:103180005060ECE750070020D807002058070020C7
:10319000E8020020DC02002058B110B50C46094AB4
:1031A00011681831FFF7ABF801212046FFF772FDD7
:1031B00010BD4FF0500383F31188BFF36F8FBFF33F
:1031C0004F8FFEE7DC02002038B570B10D46144683
:1031D0000A4A11681831FFF787F80CB14FF0FF3534
:1031E00021462846FFF756FD38BD4FF0500383F3C4
:1031F0001188BFF36F8FBFF34F8FFEE7DC02002013
:1032000038B5C368DC6824B304F118052846FFF715
:103210008FF8184B1B682BBB251D2846FFF788F835
:10322000E06A154B1B68984201D9134B186000EBFC
:1032300080002946114B03EB8000FFF755F8E26A46
:103240000F4B1B68DB6A9A4211D901200D4B1860A5
:1032500038BD4FF0500383F31188BFF36F8FBFF376
:103260004F8FFEE729460848FFF73EF8E7E70020C2
:10327000EEE700BF5007002058070020E8020020BA
:10328000DC020020D807002094070020034B1B68B5
:103290000360034B1B684360704700BF8C0700202E
:1032A000D4070020F8B5C8B10C460546F9B100F0C6
:1032B00049FC1B4B19686B68C81A2268B2F1FF3FC2
:1032C00026D0184E36682F68B74201D08B4224D9D9
:1032D000824215D80023236001241AE04FF05003E6
:1032E00083F31188BFF36F8FBFF34F8FFEE74FF06B
:1032F000500383F31188BFF36F8FBFF34F8FFEE747
:103300005B1A134423602846FFF7C0FF002400E047
:10331000002400F039FC2046F8BD0124F9E700BF85
:10332000D40700208C070020014B01221A6070474F
:10333000D8070020054B1B6833B1054B1B680BB148
:10334000002070470220704701207047A807002026
:103350005007002000283BD038B504461E4B1B68A0
:10336000834208D04FF0500383F31188BFF36F8F6F
:10337000BFF34F8FFEE7036D43B94FF0500383F364
:103380001188BFF36F8FBFF34F8FFEE7013B0365DB
:10339000C16AC26C91421DD00BB1002038BD051D21
:1033A0002846FEF7C5FFE06CE062C0F13803A36178
:1033B0000A4B1B68984201D9084B186000EB80004B
:1033C0002946074B03EB8000FEF78EFF0120E5E75F
:1033D000002070470020E1E7DC02002058070020B1
:1033E000E8020020064B1A6813682BB9012303601A
:1033F00023B9D368186870470023F8E700207047A6
:10340000DC07002008B54160006191420CD8D21A57
:1034100083699A4201D3012008BD011D094B186838
:10342000FEF76DFF0020F7E79A4201D2994206D2DB
:10343000011D054B1868FEF762FF0020ECE7012034
:10344000EAE700BFE0070020DC07002030B583B0CA
:1034500000F078FB114B1B681BB100F095FB03B02B
:1034600030BD0F4D2846FEF731FF0E4C2046FEF7CB
:103470002DFF0D4B1D600D4B1C60002300930C4B6A
:103480000C4A10210A20FFF759F8044B1860002855
:10349000E3D00949FFF776FADFE700BF0009002013
:1034A0008408002098080020DC070020E0070020A6
:1034B000B0080020E40700200441000810B588B0DF
:1034C000FFF7C4FF124B1B68CBB100240594069490
:1034D00007AA06A905A800F06DFD059B0293069BAF
:1034E0000193022300932346079A0A490A48FFF7EB
:1034F0000FFC0A4B186010B1012008B010BD4FF04E
:10350000500383F31188BFF36F8FBFF34F8FFEE734
:10351000000900200C41000821380008040900209F
:10352000B8B19C4603461848006858B300B585B04A
:1035300000910192029305291CDCFFF7FBFE022893
:1035400010D000231A4669460F480068FFF740F87C
:1035500015E04FF0500383F31188BFF36F8FBFF373
:103560004F8FFEE70023069A694607480068FFF779
:103570002FF804E0002362466946FFF7EDF805B036
:103580005DF804FB002070470009002070B582B090
:103590001B4B1B681A6862B3DB681E68DC68251D5C
:1035A0002846FEF7C5FE236A2046984794F828303F
:1035B00013F0040FECD0A36933449E4207D263603A
:1035C000246129460E4B1868FEF799FEE0E70021BA
:1035D00000910B4632462046FFF7A2FF0028D7D1C4
:1035E0004FF0500383F31188BFF36F8FBFF34F8FFA
:1035F000FEE7044A106802490860136002B070BD1B
:10360000DC070020E007002038B50546FFF746FC40
:103610000446074B1B68834205D800232B60044BEC
:103620001C60204638BDFFF7B1FF01232B60F6E791
:10363000AC08002070B582B006460D4617490968EF
:10364000C968CC68201DFEF773FE94F828C01CF0F2
:10365000040F08D12CF0010C84F828C0236A2046FE
:10366000984702B070BDA16933462A4631442046CE
:10367000FFF7C8FE0028F1D0002100910B4632462A
:103680002046FFF74DFF0028E8D14FF0500383F3A9
:103690001188BFF36F8FBFF34F8FFEE7DC07002069
:1036A00070B582B006460C46FFF7F0FB01A8FFF7A5
:1036B000ABFF019B33BB05460CB9B04219D224B114
:1036C000124A12681268DAB901242246711B104BA3
:1036D0001868FFF76BF9FFF773FCA8B94FF0E02308
:1036E0004FF08052C3F8042DBFF34F8FBFF36F8F9D
:1036F0000AE0FFF765FC29463046FFF79BFF03E031
:103700001C46E2E7FFF75CFC02B070BDE00700205A
:103710000009002010B588B002E0049B002B0FDAEE
:10372000002204A93D4B1868FFF77DF8002873D0EC
:10373000049B002BF1DA07990698059B9847ECE764
:10374000069C636913B1201DFEF7F2FD03A8FFF785
:103750005BFF049B092BE3D8DFE803F00505053088
:1037600037500505303794F8283043F0010384F8CA
:103770002830059BA169024619442046FFF742FE06
:103780000028CDD0236A2046984794F8283013F0BB
:10379000040FC5D0A269002100910B460598024490
:1037A0002046FFF7BDFE0028BAD14FF0500383F347
:1037B0001188BFF36F8FBFF34F8FFEE794F8283067
:1037C00023F0010384F82830AAE794F8283043F066
:1037D000010384F828300599A16131B103460246FE
:1037E00001442046FFF70EFE9AE74FF0500383F3A3
:1037F0001188BFF36F8FBFF34F8FFEE794F8283027
:1038000013F0020F04D023F0010384F8283087E777
:10381000204600F0F3F883E708B010BD000900204F
:1038200000B583B001A8FFF7DDFD0199FFF738FF70
:10383000FFF770FFF6E70000124A12F0070F1ED0E4
:10384000D11D21F00701C1F5705313440A460E48FB
:103850000260002141601344083B23F007030B483A
:10386000036059601960991A51601360084B196020
:10387000084B1960084B4FF000421A6070474FF434
:103880007053E4E70C0900202045002008090020BF
:1038900014450020104500200C450020164B1A4608
:1038A0001B688342FBD3516802EB010C844509D0AD
:1038B000416800EB010C634509D00360904219D0C8
:1038C000106070474068014451601046F0E710B442
:1038D0000A4C2468A3420BD05B681944416013680A
:1038E0001B680360904200D010605DF8044B704785
:1038F0000460F7E7704700BF20450020080900205A
:1039000070B50546FFF7C2FA364B1B68A3B1364BBC
:103910001B681D424ED135B1083515F0070F02D096
:1039200025F007050835002D46D0304B1B68AB420B
:1039300051D32F4A146804E0FFF77EFFE7E72246E1
:103940001C466368AB4202D22368002BF7D1254B9B
:103950001B68A34241D01668083623681360636869
:103960005B1B102B10D9601910F0070F08D04FF017
:10397000500383F31188BFF36F8FBFF34F8FFEE7C0
:1039800043606560FFF78AFF626818490B689B1AFD
:103990000B60184909688B4201D216490B60124B23
:1039A0001B681343636000232360134A13680133C9
:1039B000136002E0002600E00026FFF701FB16F08E
:1039C000070F0CD04FF0500383F31188BFF36F8FB4
:1039D000BFF34F8FFEE70026EFE70026EDE7304606
:1039E00070BD00BF080900200C45002010450020D4
:1039F000204500201445002018450020002834D020
:103A000038B50446A0F1080550F8043C174A12687E
:103A1000134208D14FF0500383F31188BFF36F8F27
:103A2000BFF34F8FFEE750F8081C41B14FF0500331
:103A300083F31188BFF36F8FBFF34F8FFEE723EA45
:103A4000020340F8043CFFF721FA54F8041C084A2A
:103A500013680B4413602846FFF720FF054A1368DC
:103A600001331360FFF7ACFA38BD70470C450020F6
:103A7000104500201C45002082B0002301930D4B0F
:103A80001B68B3F1FF3F08D04FF0500383F3118858
:103A9000BFF36F8FBFF34F8FFEE74FF0500383F3F9
:103AA0001188BFF36F8FBFF34F8F019B002BFCD0AA
:103AB00002B070470C00002008480068006880F3DE
:103AC00008884FF0000080F3148862B661B6BFF337
:103AD0004F8FBFF36F8F00DF00BF000008ED00E0E5
:103AE000DFF80C00016841F47001016070470000CC
:103AF00088ED00E04FF0807340F8043C21F00101B4
:103B000040F8081C054B40F80C3C40F8202C6FF0A6
:103B1000020340F8243C4438704700BF793A00085B
:103B2000074B19680868B0E8F04F80F30988BFF3C5
:103B30006F8F4FF0000080F311887047AFF3008063
:103B4000DC0200204FF0500383F31188BFF36F8F26
:103B5000BFF34F8F0B4A136801331360012B00D062
:103B600070474FF0E023D3F8043D13F0FF0FF7D078
:103B70004FF0500383F31188BFF36F8FBFF34F8F64
:103B8000FEE700BF0C000020094B1B6843B94FF053
:103B9000500383F31188BFF36F8FBFF34F8FFEE79E
:103BA000013B034A13600BB983F31188704700BFD0
:103BB0000C000020000000000000000000000000D9
:103BC000EFF30980BFF36F8F154B1A681EF0100FCB
:103BD00008BF20ED108A20E9F04F10602DE90900A0
:103BE0004FF0500080F31188BFF34F8FBFF36F8FFA
:103BF000FFF788FA4FF0000080F3118809BC1968BC
:103C00000868B0E8F04F1EF0100F08BFB0EC108A43
:103C100080F30988BFF36F8F704700BFAFF3008058
:103C2000DC02002008B54FF0500383F31188BFF386
:103C30006F8FBFF34F8FFFF737F928B14FF0E023B5
:103C40004FF08052C3F8042D002383F3118808BD80
:103C50004FF0E022002313619361054B1B68054977
:103C6000A1FB03139B09013B5361072313617047B9
:103C700008000020D34D62104FF0E023D3F8002D50
:103C80003D4B9A421CD04FF0E023D3F8002D3B4B24
:103C90009A421ED030B583B0394B1A78D2B2019215
:103CA000FF221A701B78DBB28DF803309DF80330C9
:103CB00003F05003334A1370334B07221A601BE0A2
:103CC0004FF0500383F31188BFF36F8FBFF34F8F13
:103CD000FEE74FF0500383F31188BFF36F8FBFF3FC
:103CE0004F8FFEE7284A1368013B13609DF80330AD
:103CF0005B00DBB28DF803309DF8033013F0800FCA
:103D0000F0D1214B1B68032B08D04FF0500383F3F5
:103D10001188BFF36F8FBFF34F8FFEE71B021A4A64
:103D2000136003F4E0631360019BDBB2144A137069
:103D30004FF0E024D4F8203D43F47003C4F8203D54
:103D4000D4F8203D43F07043C4F8203DFFF780FFD6
:103D500000250E4B1D60FFF7C3FED4F8343F43F03F
:103D60004043C4F8343FFFF7A7FEFFF7CBF9FFF756
:103D700083FE284603B030BD71C20F4170C20F41AF
:103D800000E400E0284500202C4500200C00002025
:103D9000EFF305830F2B0FD9114A9B5CDBB2114A5D
:103DA00012789A4208D94FF0500383F31188BFF379
:103DB0006F8FBFF34F8FFEE74FF0E023D3F80C3D3A
:103DC00003F4E063084A1268934208D94FF05003A5
:103DD00083F31188BFF36F8FBFF34F8FFEE77047F8
:103DE000F0E300E0284500202C45002010B582B00B
:103DF00000240194154B1A6B42F480021A631B6B6A
:103E000003F480030193019B224605213820FDF72E
:103E100051FD3820FDF786FD224605213A20FDF7A9
:103E200049FD3A20FDF77EFD224605213B20FDF7A6
:103E300041FD3B20FDF776FD224605214620FDF79A
:103E400039FD4620FDF76EFD02B010BD003802407E
:103E500008B54FF0E0231B69FFF76CFA012800D189
:103E600008BDFFF7DFFEFBE7EFF305832BB9064B39
:103E7000186828B901221A6070476FF00500704772
:103E80004FF0FF30704700BF8C470020EFF30583F1
:103E900073B90A4B1B68012B0DD110B50024084BD8
:103EA000DC77064B02221A60FEF7A2FF204610BD07
:103EB0006FF0050070474FF0FF3070478C470020CF
:103EC00000ED00E0F0B587B000240594EFF3058421
:103ED00074BB68B322B31568936903B918235C1ED9
:103EE000372C49D8546814F0010F47D156696EB188
:103EF0004FEA960C94682CB1D7685B2F02D91769EA
:103F000007B1C6B92CB14FF0FF340EE04FF0800C72
:103F1000F0E7D4688CB9146994B14FF0FF3404E031
:103F20001546002418234FF0800C012C0AD0ACB1A8
:103F3000059807B0F0BD0124F7E74FF0FF34F4E730
:103F40000024F2E7146992680292019400930B46F0
:103F500062462946FEF7DCFE0590E9E705AA0192D4
:103F600000930B461FFA8CF22946FEF70CFF01283E
:103F7000DED000230593DBE70020DAE70020D8E756
:103F800008B5EFF3058333B908B9002008BDFFF782
:103F900093F80020FAE76FF00500F7E7034B0360A2
:103FA000034B0B6080231360704700BF3047002035
:103FB00030450020034B0360034B0B604FF48073CC
:103FC00013607047904B002090470020DFF834D0FA
:103FD000FEF75CF90C480D490D4A002302E0D45865
:103FE000C4500433C4188C42F9D30A4A0A4C002343
:103FF00001E013600432A242FBD300F011F8FCF799
:10400000C9FA7047000002200000002010000020C4
:104010002441000810000020EC4B0020FEE70000C7
:1040200070B50D4D0D4C641BA4100026A64209D19D
:104030000B4D0C4C00F02EF8641BA4100026A64279
:1040400005D170BD55F8043B98470136EEE755F8A9
:10405000043B98470136F2E71C4100081C41000868
:104060001C410008204100080A44914200F1FF333E
:1040700000D1704710B511F8014B03F8014F914280
:10408000F9D110BD02440346934200D1704703F8B2
:10409000011BF9E7F8B500BFF8BC08BC9E467047A5
:0C40A000F8B500BFF8BC08BC9E46704795
:1040AC0000061016000610160000000000000000AC
:1040BC0001020304060708090000000001020304C2
:1040CC0064656661756C745461736B00CC40000858
:1040DC0000000000000000000000000000000000D4
:1040EC0000020000180000000000000000000000AA
:1040FC0049444C4500000000546D72510000000012
:08410C00546D7220537663002C
:08411400ECC0FF7F0100000078
:04411C00B5010008E1
:044120009101000801
:1041240001000000100000000024F400AAAAAAAABA
:0400000508003FCDE3
:00000001FF
