:020000040800F2
:100000000000022031370008E50B0008EB0B000868
:10001000F10B0008F70B0008FD0B000800000000C2
:100020000000000000000000000000005133000844
:10003000030C000800000000293600088D36000877
:1000400081370008813700088137000881370008B0
:1000500081370008813700088137000881370008A0
:100060008137000881370008813700088137000890
:100070008137000881370008813700088137000880
:100080008137000881370008813700088137000870
:100090008137000881370008813700088137000860
:1000A0008137000881370008813700088137000850
:1000B000110C0008813700088137000881370008DB
:1000C0008137000881370008813700088137000830
:1000D000813700082D0C000881370008813700089F
:1000E0008137000881370008813700088137000810
:1000F0008137000881370008813700088137000800
:1001000081370008813700088137000881370008EF
:1001100081370008813700088137000881370008DF
:100120008137000881370008390C00088137000842
:1001300081370008813700088137000881370008BF
:1001400081370008813700088137000881370008AF
:100150008137000881370008450C00088137000806
:10016000813700088137000881370008813700088F
:10017000813700088137000881370008000000003F
:080180008137000881370008F7
:1001900010B5054C237833B9044B13B10448AFF3C1
:1001A00000800123237010BD7000002000000000BB
:1001B000C440000808B5034B1BB103490348AFF323
:1001C000008008BD0000000074000020C44000084A
:1001D000034613F8012B002AFBD1181A0138704787
:1001E00001F0FF01102A2BDB10F0070F08D010F8E8
:1001F000013B013A8B422DD010F0070F42B3F6D1EC
:10020000F0B441EA012141EA014122F007047FF004
:1002100000070023F0E80256083C85EA010586EA5B
:10022000010685FA47F5A3FA87F586FA47F6A5FA97
:1002300087F68EB9EED1F0BC01F0FF0102F00702A3
:1002400032B110F8013B013A83EA010313B1F8D14E
:100250000020704701387047002D06BF354603382F
:10026000073815F0010F07D1013015F4807F02BF68
:10027000013015F4C03F0130F0BC0138704700BFB9
:1002800080B584B000AF78607B68FB600A4B1B6868
:10029000BB60FB689BB206339BB21946074800F06F
:1002A0008BF9FB685B0010333B4433F8083C18467D
:1002B00001F060FCEDE700BFDC40000800000240F8
:1002C00080B586B002AF7860282002F065FDF86046
:1002D000102002F061FDB8604FF47A731022B96803
:1002E000002000F010FFBB681B781946BB68013383
:1002F0001B781846BB6802331B781A46BB68033369
:100300001B780193009203460A460C49F86803F0F3
:1003100079FAF868FFF75CFF03464FF47A721946E2
:10032000F86800F0ADFAF86802F066FEB86802F00E
:1003300063FE4FF4FA6001F01DFCC5E7E0400008E1
:1003400080B582B002AF00F031FD00F033F800F06C
:10035000F3F900F019FB00F0BFFE00230193002326
:100360000093002340220E490E4801F0B7FA002303
:10037000019301230093012340220B49094801F016
:10038000ADFA002301930223009300234FF400628F
:100390000649074801F0A2FA01F06AFCFEE700BF37
:1003A000F8400008810200080441000810410008DC
:1003B000C102000880B400AF7C4B1B6B7B4A43F04A
:1003C000010313637A4B1B68794A43F4805313602B
:1003D000774B1B68764A43F480431360744B5B6829
:1003E000734A23F0C0035360714B9B68704A23F437
:1003F000704393606E4BDB686D4A43F4A043D36057
:100400006B4B5B696A4A43F0C0035361674B5B6C9B
:10041000664A43F010035364654B1B6823F4402382
:10042000634A43F400231360614B1B6823F44013B9
:100430005F4A43F4001313605D4B5B685C4A23F42E
:10044000C06353605A4B9B68594A43F440239360FE
:10045000574B9B68564A43F440139360544BDB68F8
:10046000534A23F44023D360514BDB68504A23F4B2
:100470004013D3604E4B5B6A23F0F0034C4A43F0C9
:10048000700353624A4A5362494B5B6A23F47063B8
:10049000474A43F4E0635362444B1B6B434A43F0C7
:1004A00002031363414B5B6C404A43F48053536433
:1004B000404B1B6823F0C0033E4A43F080031360A7
:1004C0003C4B1B6823F440733A4A43F400731360B7
:1004D000384B1B6823F44063364A43F400631360CF
:1004E000334B5B68324A23F038035360314B9B68CF
:1004F000304A43F0C00393602E4B9B682D4A43F46F
:10050000407393602B4B9B682A4A43F4406393608B
:10051000284BDB68274A23F0C003D360254BDB68F8
:10052000244A23F44073D360224BDB68214A23F42E
:100530004063D3601F4B1B6A23F470431D4A43F48E
:10054000A04313621B4B1B6A23F47023194A43F424
:10055000A0231362174B1B6A23F47003154A43F45C
:10056000A0031362134B1B68124A43F0010313608C
:10057000104B5B680F4A23F0010353600D4B9B68DF
:100580000C4A43F0030393600A4BDB68094A23F0EB
:100590000303D360074B5B69064A43F001035361D1
:1005A00000BFBD465DF8047B704700BF00380240C5
:1005B000000002400004024080B485B000AF7860C3
:1005C0000B467B807B685B69FB607B8801229A40DD
:1005D000FB6813401A04FB68D9437B88012000FAAA
:1005E00003F30B401A437B689A6100BF1437BD4682
:1005F0005DF8047B704780B483B000AF78600B4631
:100600007B8013467B707B78002B0AD17B685A690C
:100610007B88012101FA03F3DB431A407B685A61AE
:1006200008E07B685A697B88012101FA03F31A43C9
:100630007B685A6100BF0C37BD465DF8047B70478C
:1006400080B483B000AF0346FB7197F90730002BED
:100650000BDBFB7903F01F02074997F907305B09B1
:10066000012000FA02F241F8232000BF0C37BD46FA
:100670005DF8047B704700BF00E100E080B483B008
:1006800000AF03463960FB7197F90730002B0ADB96
:100690003B68DAB20C4997F907301201D2B20B4429
:1006A00083F800230AE03B68DAB20849FB7903F0DB
:1006B0000F03043B1201D2B20B441A7600BF0C3771
:1006C000BD465DF8047B704700E100E000ED00E00E
:1006D00080B489B000AFF860B9607A60FB6803F05D
:1006E0000703FB61FB69C3F10703042B28BF042345
:1006F000BB61FB690433062B02D9FB69033B00E0B5
:1007000000237B614FF0FF32BB6902FA03F3DA4347
:10071000BB681A407B699A404FF0FF317B6901FA50
:1007200003F3D9437B680B40134318462437BD4677
:100730005DF8047B7047000080B582B000AF0023F5
:100740007B60002205217868FFF7C2FF0346194647
:100750002520FFF793FF2520FFF772FF454BDB684D
:10076000444A23F40053D360424B1B69414A23F4AB
:10077000405313613F4BDB683E4A23F40043D36090
:100780003C4BDB683B4A23F48053D360394BDB6836
:10079000384A23F48063D360364BDB68354A43F034
:1007A0000803D360334BDB68324A43F00403D36061
:1007B000304B5B692F4A23F4407353612D4B40F259
:1007C000D9229A602B4B1B692A4A23F49043136168
:1007D000284B5B69274A23F02A035361254B5B6949
:1007E000244A43F040035361234B1B6B224A43F4DA
:1007F00080031363214B00221A6000F0CDFB3860A8
:1008000007E000F0C9FB02463B68D31AB3F57A7FD4
:1008100006D81A4B1B6803F00103002BF1D100E04E
:1008200000BF164B1B68154A43F4A0631360134BBB
:100830001B68124A43F000631360104B1B680F4A99
:1008400043F440331360002205217868FFF740FF2E
:10085000034619463A20FFF711FF3A20FFF7F0FE52
:10086000044BDB68034A43F40053D36000BF0837EE
:10087000BD4680BD00100140003802404064024087
:1008800080B586B000AFF860B9607A6000F084FB94
:10089000386100237B6121E000F07EFB02463B696A
:1008A000D31A7A689A421ED307E000F075FB02461D
:1008B0003B69D31A7A689A4206D30D4B1B6803F042
:1008C0008003002BF1D000E000BFFA687B6913447D
:1008D0001A78074B5A607B6901337B617A69BB6880
:1008E0009A42D9D300E000BF00BF1837BD4680BD93
:1008F0000010014080B483B000AF0A4B1B687B60DE
:10090000084BDB683B607B6803F02003002B7B68AF
:1009100003F01003002B00BF0C37BD465DF8047BCD
:10092000704700BF0010014080B400AF034B0122AC
:100930001A7100BFBD465DF8047B70478C00002033
:1009400080B582B000AF0F4B1B687B607B6803F4FF
:100950000013002B07D00B4B9B680A4A43F47C130F
:100960009360FFF7E1FF7B6803F48013002B05D051
:10097000044B9B68034A43F48013936000BF08371D
:10098000BD4680BD0064024080B400AF214B1B68AF
:10099000204A23F0010313601E4B1B681D4A23F0FD
:1009A000010313601B4B1B681A4A23F002031360F8
:1009B000184B1B68174A43F004031360154B1B6860
:1009C00023F03803134A43F018031360114B1B68DC
:1009D000104A23F0800313600E4B1B680D4A43F44A
:1009E000007313600B4B1B680A4A43F48073136057
:1009F000084B1B68074A23F080031360054B1B68F4
:100A0000044A43F04003136000BFBD465DF8047B19
:100A1000704700BF003001402DE9F04387B002AFBE
:100A200078600B467B8013463B806B461E46798878
:100A30000B46013BFB608BB20022984691464FF07B
:100A400000024FF000034FEAC90343EA58734FEA2C
:100A5000C8028BB200221C4615464FF000024FF030
:100A60000003EB0043EA5473E2000B460733DB0854
:100A7000DB00ADEB030D02AB0033BB6079887A88F5
:100A80003B8800930B46B968786800F04DF8B5468E
:100A900000BF1437BD46BDE8F0832DE9F04387B0B1
:100AA00002AF78600B467B8013463B806B461E4648
:100AB00079880B46013BFB608BB200229846914639
:100AC0004FF000024FF000034FEAC90343EA5873A6
:100AD0004FEAC8028BB200221C4615464FF00002B6
:100AE0004FF00003EB0043EA5473E2000B46073378
:100AF000DB08DB00ADEB030D02AB0033BB607B8892
:100B00001A46FF21B86802F075FE79887A883B881A
:100B100000930B467968B86800F006F8B54600BF48
:100B20001437BD46BDE8F08380B58AB000AFF860E9
:100B3000B96011461A460B46FB801346BB8000F095
:100B40002BFA7861FB687B62FB887B84BB68FB6166
:100B5000BB887B8301237B7634E0204B9B6803F0CA
:100B60000203022B11D17B8C002B0ED07B7E012B3C
:100B70000BD17B6A1A78194BDA607B6A01337B628E
:100B80007B8C013B7B8400237B76144B9B6803F0BA
:100B90000103012B0ED17B8B002B0BD0104B1A784D
:100BA000FB691A70FB690133FB617B8B013B7B8323
:100BB00001237B7600F0F0F902467B69D21A3B8E66
:100BC0009A4206D27B8C002BC7D17B8B002BC4D1E1
:100BD00000E000BF00BF2837BD4680BD00300140A7
:100BE0000C30014080B400AFFEE780B400AFFEE7F8
:100BF00080B400AFFEE780B400AFFEE780B400AF82
:100C0000FEE780B400AF00BFBD465DF8047B7047CF
:100C100080B500AF4FF080431B694FF0804223F056
:100C20000103136100F0AAF900BF80BD80B500AFD9
:100C3000FFF760FE00BF80BD80B500AFFFF780FE0C
:100C400000BF80BD80B500AFAFF3008000BF80BDA6
:100C500080B485B000AF78607B6803F00703FB6069
:100C60000C4BDB68BB60BA684FF6FF031340BB60F8
:100C7000FB681A02BB68134343F0BF6343F40033BD
:100C8000BB60044ABB68D36000BF1437BD465DF843
:100C9000047B704700ED00E080B400AF044BDB68DC
:100CA0001B0A03F007031846BD465DF8047B704736
:100CB00000ED00E080B483B000AF0346FB7197F90C
:100CC0000730002B0BDBFB7903F01F02074997F974
:100CD00007305B09012000FA02F241F8232000BF2F
:100CE0000C37BD465DF8047B704700BF00E100E0B3
:100CF00080B483B000AF03463960FB7197F90730C9
:100D0000002B0ADB3B68DAB20C4997F90730120175
:100D1000D2B20B4483F800230AE03B68DAB20849F8
:100D2000FB7903F00F03043B1201D2B20B441A7695
:100D300000BF0C37BD465DF8047B704700E100E062
:100D400000ED00E080B489B000AFF860B9607A606F
:100D5000FB6803F00703FB61FB69C3F10703042B86
:100D600028BF0423BB61FB690433062B02D9FB694E
:100D7000033B00E000237B614FF0FF32BB6902FAC6
:100D800003F3DA43BB681A407B699A404FF0FF31A6
:100D90007B6901FA03F3D9437B680B401343184680
:100DA0002437BD465DF8047B7047000080B500AF76
:100DB0003E4B1B683D4A43F4007313603B4B1B687A
:100DC0003A4A43F480631360384B1B68374A43F454
:100DD000807313600320FFF73BFF354B5B6C344A95
:100DE00043F480435364324B1B6C314A43F08053CD
:100DF0001364304B1B682F4A43F4804313602C4B21
:100E00001B682B4A43F48033136000BF284B1B68D8
:100E100003F40033002BF9D0254B1B68244A23F040
:100E20008073136000BF224B1B6803F00073002B1C
:100E3000F9D11F4B204A5A601D4B1B681C4A43F0D6
:100E40008073136000BF1A4B1B6803F00073002B04
:100E5000F9D0164B1B6823F00703144A43F005032F
:100E60001360134B9B6823F46043114A43F400431F
:100E700093600F4B9B6823F4E0530D4A43F4A05357
:100E800093600B4B9B680A4A23F0F0039360084B76
:100E90009B6823F00303064A43F002039360074B69
:100EA000074A1A6000F00EF800BF80BD003C024007
:100EB0000038024000700040042A40040000002076
:100EC000007A030A80B584B000AF0023FB602A4B90
:100ED0001B6C294A43F0010313645323BB604FF09A
:100EE00080431B687B607B6823F070037B607B68BA
:100EF00023F440737B607B6823F080037B604FF0BA
:100F000080427B6813604FF0804340F2E732DA6240
:100F10004FF08042BB6893624FF0804301225A61D8
:100F20004FF080431B694FF0804223F001031361AF
:100F30004FF08043DB684FF0804243F00103D36001
:100F40001C20FFF7B7FEFFF7A7FEF86000220F2175
:100F5000F868FFF7F7FE034619461C20FFF7C8FEA6
:100F60004FF080431B684FF0804243F00103136051
:100F700000BF1037BD4680BD0038024080B400AFCE
:100F8000044B1B680133034A136000BFBD465DF884
:100F9000047B70479400002080B400AF034B1B68B3
:100FA0001846BD465DF8047B704700BF94000020E2
:100FB00080B584B000AF7860FFF7EEFFF86000BF47
:100FC000FFF7EAFF0246FB68D31A7A689A42F7D81D
:100FD00000BF00BF1037BD4680BD000080B400AF29
:100FE000064BD3F88830054A43F47003C2F88830C2
:100FF00000BFBD465DF8047B704700BF00ED00E018
:1010000080B586B000AF7860144A154BD31A7B6167
:101010007B693B61134B1B68002B02D1114B124AB9
:101020001A60104B1A687B6813443A699A4207D2D7
:1010300002F0A8FB03460C221A604FF0FF3309E0D0
:10104000084B1B68FB60074B1A687B681344054A12
:101050001360FB6818461837BD4680BD00000220AB
:1010600000040000980000205042002080B582B0AB
:1010700000AF78607868FFF79BFF00BF0837BD4678
:1010800080BD000080B500AF002200210248FFF7BC
:10109000B2FA00BF80BD00BF0004024080B500AFBF
:1010A000012200210248FFF7A6FA00BF80BD00BF61
:1010B0000004024080B582B000AF78600B46FB7040
:1010C000FB789BB24FF4FA6219467868FFF7A4FCEC
:1010D00000BF0837BD4680BD80B582B000AF662333
:1010E0003B7199237B71FFF7CDFF3B1D0221184611
:1010F000FFF7E0FFFFF7D2FF6420FFF7B7FF00BF65
:101100000837BD4680BD80B586B000AFF860B960D5
:101110007A603B6003233B75FB681B0CDBB27B757D
:10112000FB681B0ADBB2BB75FB68DBB2FB75FFF724
:10113000A9FF07F114034FF4FA7204211846FFF7D0
:101140006BFC7B689BB23A6892B21946B868FFF7AD
:10115000A4FCFFF7A3FF00BF1837BD4680BD80B4D5
:1011600083B000AF78607B6803F108027B685A6047
:101170007B684FF0FF329A607B6803F108027B685E
:10118000DA607B6803F108027B681A617B680022E1
:101190001A6000BF0C37BD465DF8047B704780B411
:1011A00083B000AF78607B6800221A6100BF0C3703
:1011B000BD465DF8047B704780B485B000AF7860B1
:1011C00039603B681B68BB60BB68B3F1FF3F03D16C
:1011D0007B681B69FB600CE07B680833FB6002E006
:1011E000FB685B68FB60FB685B681B68BA689A42D7
:1011F000F6D2FB685A683B685A603B685B683A689D
:101200009A603B68FA689A60FB683A685A603B6883
:101210007A681A617B681B685A1C7B681A6000BF79
:101220001437BD465DF8047B704780B485B000AFCD
:1012300078607B681B69FB607B685B687A68926892
:101240009A607B689B687A6852685A60FB685B6842
:101250007A689A4203D17B689A68FB685A607B6817
:1012600000221A61FB681B685A1EFB681A60FB6843
:101270001B6818461437BD465DF8047B70470000B4
:1012800080B586B000AF7860396001237B617B68F0
:101290003B613B69002B0AD14FF0500383F3118867
:1012A000BFF36F8FBFF34F8FFB6000BFFEE73B695B
:1012B000002B5DD03B69DB6B002B59D03B691A6C6E
:1012C0003B69DB6B0021A3FB0223002B00D0012133
:1012D0000B46002B4CD102F04DF93B691A683B6973
:1012E000DB6B3969096C01FB03F31A443B699A60B3
:1012F0003B6900229A633B691A683B695A603B6903
:101300001A683B69DB6B013B3969096C01FB03F32C
:101310001A443B69DA603B69FF2283F844203B6949
:10132000FF2283F845203B68002B14D13B691B69E1
:10133000002B1AD03B691033184600F0E5FF034636
:10134000002B12D0154B4FF080521A60BFF34F8F15
:10135000BFF36F8F09E03B6910331846FFF7FFFEBC
:101360003B6924331846FFF7FAFE02F033F901E037
:1013700000237B617B69002B0AD14FF0500383F37C
:101380001188BFF36F8FBFF34F8FBB6000BFFEE7C5
:101390007B6918461837BD4680BD00BF04ED00E0EC
:1013A00080B58AB002AFF860B9601346FB710023C4
:1013B000FB61FB68002B2ED00021BA68FB68A3FB01
:1013C0000223002B00D001210B46002B23D1FB6808
:1013D000BA6802FB03F313F1510F1CD8FB68BA681B
:1013E00002FB03F3BB61BB695033184601F0D4FC28
:1013F000F861FB69002B1CD0FB697B617B69503372
:101400007B61FA79FB69009313467A69B968F868D9
:1014100000F014F80DE0FB69002B0AD14FF05003E7
:1014200083F31188BFF36F8FBFF34F8F3B6100BF12
:10143000FEE7FB6918462037BD4680BD80B584B005
:1014400000AFF860B9607A60FB70BB68002B03D115
:10145000BB69BA691A6002E0BB697A681A60BB6945
:10146000FA68DA63BB69BA681A640121B869FFF7E0
:1014700007FFBB69FA7883F84C2000BF1037BD46E0
:1014800080BD000080B58CB000AFF860B9607A60B4
:101490000023FB62FB68BB62BB6A002B0AD14FF0E2
:1014A000500383F31188BFF36F8FBFF34F8F3B62FD
:1014B00000BFFEE7BB68002B03D1BB6A1B6C002B8F
:1014C00001D1012300E00023002B0AD14FF050038B
:1014D00083F31188BFF36F8FBFF34F8FFB6100BFA2
:1014E000FEE701F025F90346002B02D17B68002BB3
:1014F00001D1012300E00023002B0AD14FF050035B
:1015000083F31188BFF36F8FBFF34F8FBB6100BFB1
:10151000FEE702F02FF8BB6A9B6B7B627B6A002BB5
:101520001FD0B968B86A00F08DF87B6A5A1EBB6A92
:101530009A63BB6A1B69002B0FD0BB6A1033184635
:1015400000F0E2FE0346002B07D03D4B4FF08052E7
:101550001A60BFF34F8FBFF36F8F02F03BF8012388
:1015600069E07B68002B03D102F034F8002362E0CD
:10157000FB6A002B06D107F11003184600F09EFF0E
:101580000123FB6202F026F800F0B6FB01F0F2FF47
:10159000BB6A93F844305BB2B3F1FF3F03D1BB6A3F
:1015A000002283F84420BB6A93F845305BB2B3F164
:1015B000FF3F03D1BB6A002283F8452002F00AF8FE
:1015C0003A1D07F110031146184600F08DFF03463F
:1015D000002B23D1B86A00F0ADF80346002B17D0DA
:1015E000BB6A24337A681146184600F023FEB86AB5
:1015F00000F04EF800F08EFB0346002B89D1104B13
:101600004FF080521A60BFF34F8FBFF36F8F80E7A8
:10161000B86A00F03DF800F07DFB7AE7B86A00F0A8
:1016200037F800F077FBB86A00F084F80346002B27
:101630003FF46FAF002318463037BD4680BD00BF72
:1016400004ED00E080B582B000AF786039607B685F
:101650001B6C002B18D07B68DA687B681B6C1A4403
:101660007B68DA607B68DA687B689B689A4203D3A0
:101670007B681A687B68DA607B68D9687B681B6C5A
:101680001A46386802F0A8F800BF0837BD4680BD8A
:1016900080B584B000AF786001F06CFF7B6893F890
:1016A0004530FB7311E07B685B6A002B12D07B68CE
:1016B0002433184600F028FE0346002B01D000F02A
:1016C00079FFFB7B013BDBB2FB7397F90F30002BFB
:1016D000E9DC00E000BF7B68FF2283F8452001F0D1
:1016E00079FF01F047FF7B6893F84430BB7311E04A
:1016F0007B681B69002B12D07B681033184600F002
:1017000003FE0346002B01D000F054FFBB7B013BDE
:10171000DBB2BB7397F90E30002BE9DC00E000BFB1
:101720007B68FF2283F8442001F054FF00BF10378C
:10173000BD4680BD80B584B000AF786001F01AFF6F
:101740007B689B6B002B02D10123FB6001E000232F
:10175000FB6001F03FFFFB6818461037BD4680BDB7
:1017600080B487B000AF7860396000233B617B684C
:10177000002B0AD14FF0500383F31188BFF36F8F12
:10178000BFF34F8FFB6000BFFEE73B68002B24D008
:1017900000237B611EE0184A7B69DB0013445B6811
:1017A0007A689A4205D17B69DB00134A13443B6196
:1017B00013E03B69002B0AD10F4A7B6952F83330A2
:1017C000002B04D17B69DB000B4A13443B617B692E
:1017D00001337B617B69072BDDD93B69002B05D089
:1017E0003B693A681A603B697A685A6000BF1C37E7
:1017F000BD465DF8047B70479C00002080B586B034
:1018000000AFF860B9607A60FB687B6101F0B2FEFE
:101810007B6993F844305BB2B3F1FF3F03D17B693E
:10182000002283F844207B6993F845305BB2B3F122
:10183000FF3F03D17B69002283F8452001F0CAFEF7
:101840007B699B6B002B06D17B6924337A68B9686E
:10185000184600F013FD7869FFF71AFF00BF18372C
:10186000BD4680BD80B58AB004AFF860B9607A60CB
:101870003B607B689B00184601F08EFA38613B693B
:10188000002B13D05C2001F087FA78617B69002B74
:1018900008D05C220021786901F0ACFF7B693A69CD
:1018A0001A6305E0386901F0A7FB01E000237B61C2
:1018B0007B69002B0DD0002303937B6902937B6A25
:1018C00001933B6A00933B687A68B968F86800F056
:1018D00028F87B6918461837BD4680BD80B588B0AA
:1018E00002AFF860B9607A603B607B6A01933B6A43
:1018F00000933B687A68B968F868FFF7B3FF38610E
:101900003B69002B05D0386900F09AF801237B6110
:1019100002E04FF0FF337B617B6918461837BD4604
:1019200080BD80B588B000AFF860B9607A603B6078
:101930003B6B186B7B689B001A46A52101F05AFF90
:101940003B6B1A6B7B6803F18043013B9B001344A4
:10195000BB61BB6923F00703BB61BB6903F00703ED
:10196000002B0AD04FF0500383F31188BFF36F8F21
:10197000BFF34F8F7B6100BFFEE7BB68002B1ED01B
:101980000023FB6112E0BA68FB69134419783A6BD3
:10199000FB69134434330A461A70BA68FB6913446E
:1019A0001B78002B06D0FB690133FB61FB690F2B11
:1019B000E9D900E000BF3B6B002283F84320BB6AFB
:1019C000372B0AD94FF0500383F31188BFF36F8F81
:1019D000BFF34F8F3B6100BFFEE7BB6A372B01D9D6
:1019E0003723BB623B6BBA6ADA623B6BBA6ADA6472
:1019F0003B6B04331846FFF7D2FB3B6B183318469A
:101A0000FFF7CDFB3B6B3A6B1A61BB6AC3F138023F
:101A10003B6B9A613B6B3A6B5A623A68F968B869FA
:101A200001F036FC02463B6B1A60FB6A002B02D0C9
:101A3000FB6A3A6B1A6000BF2037BD4680BD0000CC
:101A400080B584B000AF786001F094FD424B1B6814
:101A50000133414A1360414B1B68002B09D13F4AB7
:101A60007B6813603C4B1B68012B10D100F0C6FD56
:101A70000DE03B4B1B68002B09D1384B1B68DA6A21
:101A80007B68DB6A9A4202D8344A7B681360354B24
:101A90001B680133334A1360324B1A687B685A64FF
:101AA0007B68DA6A304B1B689A4203D97B68DB6A31
:101AB0002D4A13607B68DA6A2C4913469B00134455
:101AC0009B000B4404331B68FB607B68FA689A60D8
:101AD000FB689A687B68DA60FB689B687A68043206
:101AE0005A607B681A1DFB689A607B68DA6A134645
:101AF0009B0013449B001D4A1A447B685A617B6813
:101B0000DA6A1A4913469B0013449B000B441B6876
:101B10007A68D26A591C154813469B0013449B00EF
:101B20000344196001F056FD0D4B1B68002B0ED0CD
:101B30000A4B1B68DA6A7B68DB6A9A4207D20C4B55
:101B40004FF080521A60BFF34F8FBFF36F8F00BF0B
:101B50001037BD4680BD00BFB0050020DC0000206E
:101B6000BC050020CC050020B8050020E0000020C6
:101B700004ED00E080B584B000AF78600023FB6026
:101B80007B68002B17D000F0B7F8124B1B68012BB5
:101B90000AD04FF0500383F31188BFF36F8FBFF368
:101BA0004F8FBB6000BFFEE70021786800F0DEFDCC
:101BB00000F0B0F8F860FB68002B07D1064B4FF03F
:101BC00080521A60BFF34F8FBFF36F8F00BF103783
:101BD000BD4680BDD805002004ED00E080B58AB088
:101BE00002AF0123FB6100233B6100237B6111E015
:101BF0001C4A7B69134419783A467B6913440A46A8
:101C00001A703A467B6913441B78002B06D07B6917
:101C100001337B617B690F2BEADD00E000BF00230D
:101C2000BB6115E0104B3B61BB699B000F4A13443D
:101C30003946019300230093002340223869FFF7BF
:101C40004DFEF861FB69002B06D0BB690133BB6117
:101C5000BB69002BE6DD00E000BFFB6918462037BA
:101C6000BD4680BD20410008CD250008D4050020D8
:101C700080B584B000AFFFF7B1FFF860FB68012BBF
:101C800002D100F0E3FDF860FB68012B16D14FF0A4
:101C9000500383F31188BFF36F8FBFF34F8FBB6087
:101CA00000BF114B4FF0FF321A60104B01221A6037
:101CB0000F4B00221A6001F073FB0EE0FB68B3F1DA
:101CC000FF3F0AD14FF0500383F31188BFF36F8FAA
:101CD000BFF34F8F7B6000BFFEE7064B1B6800BF62
:101CE0001037BD4680BD00BFD0050020BC050020D8
:101CF000B40500200400002080B400AF044B1B6832
:101D00000133034A136000BFBD465DF8047B704792
:101D1000D805002080B588B000AF0023FB61002308
:101D2000BB6101F027FC00233B61754B1B68002B56
:101D30000AD14FF0500383F31188BFF36F8FBFF3C5
:101D40004F8F3B6000BFFEE76D4B1B68013B6C4A49
:101D500013606B4B1B68002B40F0CB80694B1B68FA
:101D6000002B00F0C6808FE0674BDB68DB68FB610F
:101D7000FB699B6AFB60FB69DB69FA69126A9A601E
:101D8000FB691B6AFA69D2695A60FB685A68FB6989
:101D900018339A4203D1FB691A6AFB685A60FB69DF
:101DA00000229A62FB681B685A1EFB681A60FB6976
:101DB0005B69BB60FB699B68FA69D2689A60FB69E2
:101DC000DB68FA6992685A60BB685A68FB69043339
:101DD0009A4203D1FB69DA68BB685A60FB6900224A
:101DE0005A61BB681B685A1EBB681A60FB69DA6AD5
:101DF000464B1B689A4203D9FB69DB6A434A13606E
:101E0000FB69DA6A424913469B0013449B000B446A
:101E100004331B687B60FB697A689A607B689A6808
:101E2000FB69DA607B689B68FA6904325A60FB6977
:101E30001A1D7B689A60FB69DA6A13469B0013449B
:101E40009B00334A1A44FB695A61FB69DA6A3049DC
:101E500013469B0013449B000B441B68FA69D26A2B
:101E6000591C2B4813469B0013449B0003441960E4
:101E7000FB69DA6A274B1B68DB6A9A4204D9264A57
:101E80003B69012142F823101F4B1B68002B7FF494
:101E90006BAFFB69002B01D000F02EFC1F4B1B68C1
:101EA0007B617B69002B12D000F04CF80346002BBD
:101EB00004D0194A3B69012142F823107B69013B98
:101EC0007B617B69002BEFD1144B00221A60124A10
:101ED0003B6952F82330002B0BD00123BB610D4B23
:101EE0001B680F4B4FF080521A60BFF34F8FBFF348
:101EF0006F8F01F06FFBBB6918462037BD4680BD70
:101F0000D8050020B005002070050020B80500208D
:101F1000E0000020DC000020C4050020C0050020F7
:101F200004ED00E080B483B000AF054B1B687B601C
:101F30007B6818460C37BD465DF8047B704700BFD0
:101F4000B405002080B58AB000AF00237B627F4BD0
:101F50001B68002B40F0EF807D4B1B6801333B6218
:101F60007B4A3B6A13603B6A002B20D1794B1B688C
:101F70001B68002B0AD04FF0500383F31188BFF386
:101F80006F8FBFF34F8F7B6000BFFEE7714B1B6805
:101F9000FB61714B1B686F4A13606F4AFB691360EA
:101FA0006E4B1B6801336D4A136000F0A5FB6C4B50
:101FB0001B683A6A9A42C0F0A980664B1B681B688E
:101FC000002B04D1664B4FF0FF321A609EE0614B4C
:101FD0001B68DB68DB68BB61BB695B687B613A6A75
:101FE0007B699A4203D25E4A7B6913608EE0BB69CB
:101FF0005B693B61BB699B68BA69D2689A60BB69DF
:10200000DB68BA6992685A603B695A68BB690433F5
:102010009A4203D1BB69DA683B695A60BB69002206
:102020005A613B691B685A1E3B691A60BB699B6A0F
:10203000002B1ED0BB699B6AFB60BB69DB69BA6978
:10204000126A9A60BB691B6ABA69D2695A60FB68F6
:102050005A68BB6918339A4203D1BB691A6AFB6894
:102060005A60BB6900229A62FB681B685A1EFB68B3
:102070001A60BB69DA6A3B4B1B689A4203D9BB6999
:10208000DB6A384A1360BB69DA6A374913469B003A
:1020900013449B000B4404331B68BB60BB69BA68E4
:1020A0009A60BB689A68BB69DA60BB689B68BA696A
:1020B00004325A60BB691A1DBB689A60BB69DA6A50
:1020C00013469B0013449B00274A1A44BB695A617C
:1020D000BB69DA6A244913469B0013449B000B44F6
:1020E0001B68BA69D26A591C1F4813469B001344E7
:1020F0009B0003441960BB69DA6A1C4B1B68DB6AEE
:102100009A427FF65AAF01237B6256E7174B1B6852
:10211000DA6A154913469B0013449B000B441B6865
:10212000012B01D901237B62114B1B68002B07D0C7
:1021300001237B6204E00F4B1B6801330D4A1360DF
:102140007B6A18462837BD4680BD00BFD8050020F1
:10215000B4050020680500206C050020C80500209B
:10216000D0050020B8050020E0000020DC000020A1
:10217000C4050020C005002080B485B000AF284B06
:102180001B68002B03D0274B01221A6042E0254B2D
:1021900000221A60244B1B68FB6010E0FB68002BD8
:1021A0000AD14FF0500383F31188BFF36F8FBFF351
:1021B0004F8F7B6000BFFEE7FB68013BFB601B4964
:1021C000FA6813469B0013449B000B441B68002BCA
:1021D000E4D0FA6813469B0013449B00134A13444F
:1021E000BB60BB685B685A68BB685A60BB685A686A
:1021F000BB6808339A4203D1BB68DA68BB685A608F
:10220000BB685B68DB680A4A1360074AFB681360B7
:10221000074B1B6800BF1437BD465DF8047B704751
:10222000D8050020C4050020B8050020E0000020EB
:10223000DC00002080B584B000AF786039607B6836
:10224000002B0AD14FF0500383F31188BFF36F8F37
:10225000BFF34F8FFB6000BFFEE7074B1B681833CF
:1022600019467868FEF7A8FF0121386800F07EFA69
:1022700000BF1037BD4680BDDC00002080B586B0B1
:1022800000AFF860B9607A60FB68002B0AD14FF0AC
:10229000500383F31188BFF36F8FBFF34F8F3B6100
:1022A00000BFFEE7FB685B687B61164B1B687A69C1
:1022B000DA61144B1B687A6992681A62114B1A68CA
:1022C0007B699B6818325A600E4B1B6803F1180239
:1022D0007B699A600B4B1B68FA689A62FB681B6803
:1022E0005A1CFB681A607B68002B02D04FF0FF334A
:1022F000BB607968B86800F039FA00BF1837BD468E
:1023000080BD00BFDC00002080B48BB000AF7860DF
:102310007B68DB68DB683B623B6A002B0AD14FF0CD
:10232000500383F31188BFF36F8FBFF34F8FFB60B0
:1023300000BFFEE73B6A9B6AFB613B6ADB693A6A66
:10234000126A9A603B6A1B6A3A6AD2695A60FB69F0
:102350005A683B6A18339A4203D13B6A1A6AFB698E
:102360005A603B6A00229A62FB691B685A1EFB692D
:102370001A604C4B1B68002B61D13B6A5B697B6127
:102380003B6A9B683A6AD2689A603B6ADB683A6A41
:1023900092685A607B695A683B6A04339A4203D157
:1023A0003B6ADA687B695A603B6A00225A617B6942
:1023B0001B685A1E7B691A603B6ADA6A3A4B1B68D3
:1023C0009A4203D93B6ADB6A374A13603B6ADA6A8E
:1023D000364913469B0013449B000B4404331B688F
:1023E0003B613B6A3A699A603B699A683B6ADA608A
:1023F0003B699B683A6A04325A603B6A1A1D3B6922
:102400009A603B6ADA6A13469B0013449B00274A92
:102410001A443B6A5A613B6ADA6A244913469B00B4
:1024200013449B000B441B683A6AD26A591C1F482C
:1024300013469B0013449B00034419601BE01C4B94
:102440005B68BB613B6ABA69DA61BB699A683B6ADF
:102450001A62BB699B683A6A18325A603B6A03F198
:102460001802BB699A603B6A114A9A62104B1B685A
:1024700001330F4A13603B6ADA6A0E4B1B68DB6A52
:102480009A4205D901237B620B4B01221A6001E0BD
:1024900000237B627B6A18462C37BD465DF8047BBF
:1024A000704700BFD8050020B8050020E0000020DC
:1024B00070050020DC000020C405002080B483B03B
:1024C00000AF7860064B1A687B681A60054B1A6883
:1024D0007B685A6000BF0C37BD465DF8047B7047CF
:1024E000C8050020B405002080B588B000AF786032
:1024F00039607B68002B0AD14FF0500383F31188B9
:10250000BFF36F8FBFF34F8F3B6100BFFEE73B68A8
:10251000002B0AD14FF0500383F31188BFF36F8F64
:10252000BFF34F8FFB6000BFFEE701F023F81F4BA6
:102530001B68BB617B685B68BA69D31A7B613B68C7
:102540001B68B3F1FF3F02D10023FB6126E07B68EB
:102550001A68174B1B689A420AD07B685B68BA6995
:102560009A4205D30123FB613B6800221A6015E003
:102570003B681B687A699A420BD23B681A687B6990
:10258000D21A3B681A607868FFF798FF0023FB6156
:1025900004E03B6800221A600123FB6101F01AF895
:1025A000FB6918462037BD4680BD00BFB40500203A
:1025B000C805002080B400AF034B01221A6000BFA1
:1025C000BD465DF8047B7047C405002080B582B02D
:1025D00000AF786000F052F8064B1B68012BF9D968
:1025E000054B4FF080521A60BFF34F8FBFF36F8FD0
:1025F000F0E700BFE000002004ED00E080B582B00D
:1026000000AF00237B600CE07A6813469B00134404
:102610009B00124A13441846FEF7A1FD7B68013364
:102620007B607B68372BEFD90D48FEF798FD0D488E
:10263000FEF795FD0C48FEF792FD0C48FEF78FFD66
:102640000B48FEF78CFD0B4B054A1A600A4B054AF6
:102650001A6000BF0837BD4680BD00BFE000002003
:10266000400500205405002070050020840500204E
:102670009C050020680500206C05002080B582B014
:1026800000AF19E000F076FF104BDB68DB687B6081
:102690007B6804331846FEF7C8FD0D4B1B68013BF1
:1026A0000B4A13600B4B1B68013B0A4A136000F096
:1026B00091FF786800F010F8064B1B68002BE1D101
:1026C00000BF00BF0837BD4680BD00BF84050020A5
:1026D000B00500209805002080B582B000AF78607A
:1026E0007B681B6B184600F087FC786800F084FC60
:1026F00000BF0837BD4680BD80B400AF0A4B1B68E1
:102700001B68002B04D1094B4FF0FF321A6005E023
:10271000054B1B68DB681B68044A136000BFBD469D
:102720005DF8047B704700BF68050020D0050020DD
:1027300080B483B000AF0B4B1B68002B02D1012388
:102740007B6008E0084B1B68002B02D102237B60F2
:1027500001E000237B607B6818460C37BD465DF8BE
:10276000047B7047BC050020D805002080B588B0E8
:1027700000AF786039602F4B1B68FB612E4B1B68E4
:10278000BB612E4B1B687B612D4B1B6804331846C5
:10279000FEF74BFD7B68B3F1FF3F24D13B68002B74
:1027A00021D0284B5B683B61254B1B683A699A60D6
:1027B000234B1B683A699268DA60214B1A683B69BF
:1027C0009B6804325A601E4B1B681A1D3B699A6055
:1027D0001B4B1B681B4A5A611A4B1B680133194A71
:1027E000136000BF22E0FA697B681344FB60144B5E
:1027F0001B68FA685A60FA68FB699A4207D2104B64
:102800001B68043319467869FEF7D6FC0EE00C4BC2
:102810001B6804331946B869FEF7CEFC0A4B1B68E7
:10282000FA689A4202D2084AFB68136000BF203758
:10283000BD4680BDB4050020680500206C05002061
:10284000DC0000209C050020D005002080B584B06D
:1028500002AF00237B6000F069FA114B1B68002B6C
:102860000BD0104B01930223009300234FF480728E
:102870000D490E48FFF732F878607B68002B0AD1CB
:102880004FF0500383F31188BFF36F8FBFF34F8F67
:102890003B6000BFFEE77B6818460837BD4680BD39
:1028A0000C060020100600202841000855290008C9
:1028B00080B584B000AFF860B9607A6008E0FB686A
:1028C0009B69BA681344BB60FB681B6AF868984749
:1028D000FB689A69BB68D118BB687A68F86800F031
:1028E000DDF80346002BEAD100BF00BF1037BD461C
:1028F00080BD000080B584B000AF78603960144BB3
:102900001B68DB68DB68FB60FB6804331846FEF776
:102910008CFCFB6893F8283003F00403002B05D0EF
:102920003A687968F868FFF7C3FF08E0FB6893F836
:10293000283023F00103DAB2FB6883F82820FB6813
:102940001B6AF868984700BF1037BD4680BD00BFBE
:102950000406002080B584B000AF786007F108035A
:10296000184600F057F8F860BB681946F86800F0A0
:1029700003F800F0D5F8F1E780B584B000AF7860D7
:102980003960FFF7B9F907F10803184600F066F857
:10299000F860BB68002B30D13B68002B0AD17A6805
:1029A000FB689A4206D8FFF7B5F9F9687868FFF72F
:1029B000A1FF24E03B68002B08D0134B1B681B6869
:1029C000002B01D1012300E000233B600F4B18686E
:1029D0007A68FB68D31A3A681946FEF70FFFFFF7CB
:1029E00099F90346002B0AD1094B4FF080521A6027
:1029F000BFF34F8FBFF36F8F01E0FFF78BF900BF7D
:102A00001037BD4680BD00BF080600200C06002020
:102A100004ED00E080B485B000AF78600E4B1B6819
:102A20001B68002B01D1012200E000227B681A60A4
:102A30007B681B68002B05D1074B1B68DB681B6894
:102A4000FB6001E00023FB60FB6818461437BD46BD
:102A50005DF8047B704700BF0406002080B584B099
:102A600000AF7860FFF75EFAF8600B4B1B68FA68FE
:102A70009A4205D200F034F97B6801221A6002E024
:102A80007B6800221A60044AFB681360FB681846E2
:102A90001037BD4680BD00BF1406002080B586B04B
:102AA00000AFF860B9607A603B6000237B61FB682F
:102AB000BA685A60FB68FA681A61BA687B689A4219
:102AC00012D87A683B68D21AFB689B699A4202D393
:102AD00001237B611BE0104B1A68FB680433194625
:102AE0001046FEF769FB12E07A683B689A4206D20C
:102AF000BA683B689A4202D301237B6107E0074B27
:102B00001A68FB68043319461046FEF755FB7B69CB
:102B100018461837BD4680BD080600200406002070
:102B200080B58AB000AF3B1D00221A605A609A60DF
:102B3000DA60C2E07B68002B18DA3B1D04337B624D
:102B40007B6A002B0AD14FF0500383F31188BFF347
:102B50006F8FBFF34F8FBB6100BFFEE77B6A1B68BF
:102B60007A6A50687A6A9268114698477B68002BA7
:102B7000C0F2A280FB683B623B6A5B69002B04D019
:102B80003B6A04331846FEF750FB3B461846FFF7F6
:102B900065FFF8617B68013B082B00F28E8001A283
:102BA00052F823F0C92B0008C92B0008312C00086B
:102BB000452C00088F2C0008C92B0008C92B0008E1
:102BC000312C0008452C00083B6A93F8283043F06C
:102BD0000103DAB23B6A83F82820BA683B6A9B6932
:102BE000D118BB68FA69386AFFF758FF0346002B13
:102BF00063D03B6A93F8283003F00403002B09D01C
:102C0000BA683B6A9B691344FA691946386AFFF748
:102C10004FFE08E03B6A93F8283023F00103DAB254
:102C20003B6A83F828203B6A1B6A386A984744E06D
:102C30003B6A93F8283023F00103DAB23B6A83F849
:102C400028203AE03B6A93F8283043F00103DAB2D7
:102C50003B6A83F82820BA683B6A9A613B6A9B69A1
:102C6000002B0AD14FF0500383F31188BFF36F8F0D
:102C7000BFF34F8F7B6100BFFEE73B6A9A69FB6938
:102C8000D118FB69FA69386AFFF708FF15E03B6A5B
:102C900093F8283003F00203002B03D1386A00F0C8
:102CA000ABF90AE03B6A93F8283023F00103DAB26B
:102CB0003B6A83F8282000E000BF084B1B68391DE1
:102CC00000221846FEF7DEFB0346002B7FF432AFEE
:102CD00000BF00BF2837BD4680BD00BF0C060020E6
:102CE00080B582B000AF09E00E4B1B68DB681B6843
:102CF0003B604FF0FF313868FFF7FCFD094B1B6864
:102D00001B68002BF0D1074B1B687B60064B1B68D0
:102D1000044A1360044A7B68136000BF0837BD464D
:102D200080BD00BF040600200806002080B500AF6B
:102D300000F020FC124B1B68002B1DD11148FEF740
:102D40000EFA1148FEF70BFA104B0E4A1A60104BA0
:102D50000D4A1A60002210210A20FEF721FB0346CB
:102D6000074A1360064B1B68002B05D0044B1B68F9
:102D700008491846FEF7F4FC00F02CFC00BF80BDAB
:102D80000C060020DC050020F005002004060020D1
:102D9000080600203041000880B58EB000AF786092
:102DA0000023FB620023BB627B68002B22D0082338
:102DB000DB437A689A421BD808227B6813447B6005
:102DC0007B6803F00703002B14D07B6803F0070334
:102DD000C3F108037B627B6ADB437A689A4204D8BA
:102DE0007A687B6A13447B6004E000237B6001E027
:102DF00000237B60FEF780FF784B1B68002B01D11E
:102E000000F072F97B68002BC0F2D1807B68002B48
:102E100000F0CD80724B1B687A689A4200F2C7803E
:102E2000704B3B636F4B1B687B637B6B6E4A9342BB
:102E300005D37B6B6D4A934201D8012300E0002348
:102E4000002B27D14FF0500383F31188BFF36F8F0E
:102E5000BFF34F8FFB6100BFFEE77B6B3B637B6B78
:102E60001B687B637B6B604A934205D37B6B5F4A35
:102E7000934201D8012300E00023002B0AD14FF038
:102E8000500383F31188BFF36F8FBFF34F8FBB6184
:102E900000BFFEE77B6B5B687A689A4203D97B6B65
:102EA0001B68002BD9D14D4B1B687A6B9A427ED0A0
:102EB0003B6B1B6808221344FB62FB6A4A4A93423D
:102EC00005D3FB6A494A934201D8012300E000235D
:102ED000002B0AD14FF0500383F31188BFF36F8F9B
:102EE000BFF34F8F7B6100BFFEE77B6B1A683B6BC4
:102EF0001A607B6B5B687A689A420AD94FF050037C
:102F000083F31188BFF36F8FBFF34F8F3B6100BF17
:102F1000FEE77B6B5A687B68D21A08235B009A42F3
:102F200023D97A6B7B6813443B623B6A03F0070347
:102F3000002B0AD04FF0500383F31188BFF36F8F3B
:102F4000BFF34F8FFB6000BFFEE77B6B5A687B6867
:102F5000D21A3B6A5A607B6B7A685A603B6B1A687C
:102F60003B6A1A603B6B3A6A1A601D4B1A687B6BAE
:102F70005B68D31A1A4A1360194B1A681C4B1B68FA
:102F80009A4203D2164B1B68194A13607B6B5B682D
:102F9000BB627B6B5B6843F000427B6B5A607B6B70
:102FA00000221A60134B1B680133124A1360FEF7AC
:102FB000B1FEFB6A03F00703002B0AD04FF0500369
:102FC00083F31188BFF36F8FBFF34F8FBB6000BFD8
:102FD000FEE7FB6A18463837BD4680BD2042002018
:102FE000244200201842002018060020174200202A
:102FF000284200202C42002080B588B000AF7860C5
:103000007B68FB617B68002B61D008235B42FA6917
:103010001344FB61FB69BB61BB692F4A934205D333
:10302000BB692E4A934201D8012300E00023002B04
:103030000AD14FF0500383F31188BFF36F8FBFF3B2
:103040004F8F7B6100BFFEE7BB695B68002B0ADB2B
:103050004FF0500383F31188BFF36F8FBFF34F8F8F
:103060003B6100BFFEE7BB691B68002B0AD04FF035
:10307000500383F31188BFF36F8FBFF34F8FFB6053
:1030800000BFFEE7BB695B68DB0F03F00103DBB247
:10309000002B1CD0BB691B68002B18D1BB695B6877
:1030A00023F00042BB695A60FEF726FEBB695A68EE
:1030B0000B4B1B6813440A4A1360B86900F06EF8A2
:1030C000084B1B680133074A1360FEF723FE00BF5D
:1030D0002037BD4680BD00BF1806002017420020E3
:1030E000244200203042002080B485B000AF4FF46D
:1030F0007053BB60244BFB60FB6803F00703002B9D
:103100000CD0FB680733FB60FB6823F00703FB6010
:10311000BA68FB68D31A1C4A1344BB60FB681B4A9D
:1031200013601A4B00225A60FA68BB6813447B6034
:1031300008227B689B1A7B607B6823F007037B6017
:103140007B68134A1360124B1B6800225A60104BB5
:103150001B6800221A60FB683B603B687A68D21AE1
:103160003B685A600A4B1A683B681A603B685B68A8
:10317000084A13603B685B68074A136000BF143756
:10318000BD465DF8047B70471806002018420020F9
:1031900020420020284200202442002080B487B032
:1031A00000AF7860364B7B6102E07B691B687B6116
:1031B0007B691B687A689A42F7D87B69304A9342E8
:1031C00017D07B692F4A934205D37B692E4A9342DD
:1031D00001D8012300E00023002B0AD14FF0500357
:1031E00083F31188BFF36F8FBFF34F8FFB6000BF76
:1031F000FEE77B693B617B695B683A6913447A68E7
:103200009A4208D17B695A687B685B681A447B697B
:103210005A607B697B607B683B617B685B683A696D
:103220001A447B691B689A4218D17B691A68174B4C
:103230001B689A420DD07B685A687B691B685B6883
:103240001A447B685A607B691B681A687B681A603D
:1032500008E00E4B1A687B681A6003E07B691A6805
:103260007B681A607A697B689A4202D07B697A68C7
:103270001A6000BF1C37BD465DF8047B704700BF75
:10328000184200201806002017420020204200208B
:1032900080B485B000AFF860B9607A60FB68043B29
:1032A000FB60FB684FF080721A60FB68043BFB60B8
:1032B000BB6823F00102FB681A60FB68043BFB60FB
:1032C0000C4AFB681A60FB68143BFB607A68FB6879
:1032D0001A60FB68043BFB60FB686FF002021A6037
:1032E000FB68203BFB60FB6818461437BD465DF861
:1032F000047B7047F932000880B485B000AF00232A
:103300007B60124B1B68B3F1FF3F0AD04FF05003B4
:1033100083F31188BFF36F8FBFF34F8FFB6000BF44
:10332000FEE74FF0500383F31188BFF36F8FBFF3B5
:103330004F8FBB6000BF00BF7B68002BFCD000BF7D
:1033400000BF1437BD465DF8047B704708000020BD
:10335000064B19680868B0E8F04F80F30988BFF39E
:103360006F8F4FF0000080F311887047DC00002061
:1033700000BF00BF08480068006880F308884FF06D
:10338000000080F3148862B661B6BFF34F8FBFF3BD
:103390006F8F00DF00BF000008ED00E000BF00BF3E
:1033A00080B58CB000AF664B1B68664A93420AD169
:1033B0004FF0500383F31188BFF36F8FBFF34F8F2C
:1033C0007B6200BFFEE75E4B1B685F4A93420AD1F7
:1033D0004FF0500383F31188BFF36F8FBFF34F8F0C
:1033E0003B6200BFFEE7594B1B68FB62FB6A2C3354
:1033F0001B68574A93420AD04FF0500383F3118859
:10340000BFF36F8FBFF34F8FFB6100BFFEE7FB6A17
:1034100038331B684F4A93420AD04FF0500383F36E
:103420001188BFF36F8FBFF34F8FBB6100BFFEE703
:103430000023BB60484BBB62BB6A1B78DBB2FB73EB
:10344000BB6AFF221A70BB6A1B78DBB2FB71FB7987
:10345000DBB203F05003DAB2404B1A703F4B1B78DB
:10346000002B0AD14FF0500383F31188BFF36F8F05
:10347000BFF34F8F7B6100BFFEE7FB79DBB2DB431D
:1034800003F05003002B12D04FF0500383F3118848
:10349000BFF36F8FBFF34F8F3B6100BFFEE7BB6889
:1034A0000133BB60FB79DBB25B00DBB2FB71FB7904
:1034B000DBB203F08003802BF1D0BB68082B03D173
:1034C000274B00221A6004E0BB68C3F10703244ABB
:1034D0001360234B1B681B02214A1360204B1B689F
:1034E00003F4E0631E4A1360FB7BDAB2BB6A1A7016
:1034F0001C4B1B681B4A43F47F031360194B1B686A
:10350000184A43F07F431360174B00221A6000F003
:10351000DFF8164B00221A6000F0FEF8144B1B680F
:10352000134A43F040431360FFF724FFFEF724FEE5
:10353000FFF7E2FE002318463037BD4680BD00BFCE
:1035400000ED00E071C20F4170C20F4108ED00E0D4
:10355000513300082936000800E400E0344200201E
:103560003842002020ED00E01CED00E008000020C3
:1035700034EF00E080B483B000AF4FF0500383F32A
:103580001188BFF36F8FBFF34F8F7B6000BF0F4B6E
:103590001B6801330D4A13600C4B1B68012B0FD1C4
:1035A0000B4B1B68DBB2002B0AD04FF0500383F3A8
:1035B0001188BFF36F8FBFF34F8F3B6000BFFEE7F3
:1035C00000BF0C37BD465DF8047B70470800002043
:1035D00004ED00E080B483B000AF124B1B68002BF9
:1035E0000AD14FF0500383F31188BFF36F8FBFF3FD
:1035F0004F8F7B6000BFFEE70A4B1B68013B094A07
:103600001360084B1B68002B05D100233B603B680F
:1036100083F3118800BF00BF0C37BD465DF8047B03
:10362000704700BF08000020EFF30980BFF36F8FE1
:10363000144B1A681EF0100F08BF20ED108A20E905
:10364000F04F10602DE909004FF0500080F3118811
:10365000BFF34F8FBFF36F8FFEF78EFD4FF000006B
:1036600080F3118809BC19680868B0E8F04F1EF0B3
:10367000100F08BFB0EC108A80F30988BFF36F8F7A
:1036800070470000DC00002000BF00BF80B582B0A2
:1036900000AF4FF0500383F31188BFF36F8FBFF378
:1036A0004F8F7B6000BFFEF74DFC0346002B03D01D
:1036B000064B4FF080521A6000233B603B6883F357
:1036C000118800BF00BF0837BD4680BD04ED00E093
:1036D00080B400AF0B4B00221A600B4B00221A6023
:1036E0000A4B1B680A4AA2FB03239B09094A013BB8
:1036F0001360044B07221A6000BFBD465DF8047BCF
:10370000704700BF10E000E018E000E0000000207B
:10371000D34D621014E000E0DFF80C00016841F4C2
:10372000700101607047000088ED00E000BF00BF3D
:10373000DFF834D0FDF752FC0C480D490D4A002348
:1037400002E0D458C4500433C4188C42F9D30A4A56
:103750000A4C002301E013600432A242FBD300F0C4
:1037600017F8FCF7EDFD7047000002200000002074
:103770007000002070410008700000204C420020C2
:10378000FEE70000014B1868704700BF0C000020E6
:1037900070B50D4D0D4C641BA4100026A64209D136
:1037A0000B4D0C4C00F08EFC641BA4100026A642AE
:1037B00005D170BD55F8043B98470136EEE755F842
:1037C000043B98470136F2E7684100086841000869
:1037D000684100086C4100080A44914200F1FF333F
:1037E00000D1704710B511F8014B03F8014F914219
:1037F000F9D110BD02440346934200D1704703F84B
:10380000011BF9E70EB400B59CB01DAB0290069009
:103810006FF00041094807910491094953F8042BBE
:1038200005910068019302A900F068F8029B00224C
:103830001A701CB05DF804EB03B070470C00002058
:103840000802FFFF2DE9F0478E689E4282460C4633
:1038500090461F4638D88A8912F4906F32D0256876
:103860000969A5EB0109656905EB450505EBD5750A
:1038700001334B446D109D4238BF1D46530531D571
:10388000294600F055FB064650B90C23CAF8003013
:10389000A38943F04003A3814FF0FF30BDE8F087D8
:1038A00021694A46FFF798FFA38923F4906343F008
:1038B0008003A381266165614E44A5EB090526605E
:1038C000A5603E46BE4200D93E462068324641468B
:1038D00000F0A8FAA3689B1BA3602368334423600D
:1038E0000020DBE72A4600F097FB06460028E1D1DE
:1038F0002169504600F0B0FAC7E700002DE9F04F0B
:1039000098468B891B069DB007460D4614460ED57A
:103910000B6963B9402100F00BFB2860286120B9D6
:103920000C233B604FF0FF30D1E040236B6100235C
:10393000099320238DF82930CDF80C803023DFF84F
:10394000A8818DF82A304FF0010923469A4613F8D2
:10395000012B0AB1252AF9D1BAEB040B0BD05B4637
:10396000224629463846FFF76DFF013000F0AA8055
:10397000099A5A4409929AF80030002B00F0A2806C
:1039800000234FF0FF32CDE905230AF1010A049329
:1039900007938DF853301A935446052214F8011BEF
:1039A0005148FCF71DFC049AD8B9D00644BF202327
:1039B0008DF85330110744BF2B238DF853309AF8FC
:1039C00000302A2B15D0079A544600204FF00A0CDD
:1039D000214611F8013B303B092B4ED9B0B107927B
:1039E00014E0A0EB080309FA03F313430493A2467F
:1039F000D2E7039B191D1B680391002BBBBF5B42E1
:103A000042F0020207930793B8BF049223782E2B4B
:103A10000CD163782A2B35D1039B1A1D1B680392A6
:103A2000002BB8BF4FF0FF3302340593DFF8C8A076
:103A3000217803225046FCF7D3FB40B14023A0EB92
:103A40000A0003FA00F0049B03430134049314F8C2
:103A5000011B26488DF828100622FCF7C1FB002820
:103A600038D0234B1BBB039B073323F007030833DA
:103A70000393099B3344099367E70CFB02320C461E
:103A80000120A5E700230134059319464FF00A0CE5
:103A9000204610F8012B303A092A03D9002BC5D053
:103AA0000591C3E70CFB012104460123F0E703ABBA
:103AB00000932A460F4B04A93846AFF30080421CFE
:103AC0000646D6D1AB895B063FF52CAF09981DB0F1
:103AD000BDE8F08F03AB00932A46064B04A9384695
:103AE00000F07AF8EBE700BF354100083F410008DD
:103AF00000000000453800083B4100082DE9F04770
:103B0000164699468A680B69DDF820809342B8BF53
:103B10001346336091F8432007460C460AB101333F
:103B200033602368990642BF3368023333602568E7
:103B300015F0060506D104F1190AE36832689B1AEC
:103B4000AB4226DC94F84320131E226818BF0123E1
:103B500092062BD404F1430249463846C04701304F
:103B60001ED02368E568326803F00603042B08BF03
:103B7000AD1AA36822690CBF25EAE57500259342BA
:103B8000C4BF9B1AED1800261A34B5421AD1002082
:103B900008E00123524649463846C047013003D168
:103BA0004FF0FF30BDE8F0870135C6E7E1185A1C39
:103BB000302081F84300224494F8451082F84310E5
:103BC0000233C7E70123224649463846C047013041
:103BD000E6D00136D9E700002DE9FF470F7E0C9DA6
:103BE000782F914680460C469A4601F1430207D849
:103BF000622F0AD8002F00F0D880582F00F0A38041
:103C000004F1420584F842703AE0A7F16303152BF2
:103C1000F6D801A151F823F0713C0008853C00085A
:103C2000013C0008013C0008013C0008013C000880
:103C3000853C0008013C0008013C0008013C0008EC
:103C4000013C0008913D0008B53C0008733D0008A8
:103C5000013C0008013C0008B33D0008013C00089D
:103C6000B53C0008013C0008013C00087B3D000811
:103C70002B681A1D1B682A6004F1420584F8423043
:103C80000123A3E020682968060601F104030AD590
:103C90000E682B60002E03DA2D23764284F8433021
:103CA0005E480A2319E00E682B6010F0400F18BF21
:103CB00036B2EFE72B682068191D2960010601D58F
:103CC0001E6802E04606FBD51E8854486F2F0CBFC5
:103CD00008230A23002184F843106568A560002D9D
:103CE000A2BF216821F0040121600EB9002D4DD042
:103CF0001546B6FBF3F103FB1167C75D05F8017DBF
:103D00003746BB420E46F4D9082B0BD12368DE0799
:103D100008D5236961689942DEBF302305F8013C6C
:103D200005F1FF35521B2261CDF800A04B4603AAD6
:103D300021464046FFF7E2FE01304CD14FF0FF3004
:103D400004B0BDE8F087354881F8457029682368DC
:103D500051F8046B29601D0614D5DF0744BF43F0FA
:103D6000200323601EB9236823F02003236010235F
:103D7000B0E7236843F0200323607823284884F8C1
:103D80004530E3E7590648BFB6B2E6E71546BBE75C
:103D90002B6826686169181D286035061B6801D5E7
:103DA000196002E07006FBD51980002323611546D7
:103DB000BAE72B681A1D2A601D6862680021284630
:103DC000FCF70EFA08B1401B6060636823610023B2
:103DD00084F84330A8E723692A4649464046D0473D
:103DE0000130ABD023689B0713D4E068039B984253
:103DF000B8BF1846A4E70123324649464046D0479B
:103E000001309BD00135E36803995B1AAB42F2DCC9
:103E1000EBE7002504F11906F5E700BF464100086D
:103E200057410008884210B501EB020402D98442D0
:103E3000234607D8431EA14208D011F8012B03F8EE
:103E4000012FF8E7024401468A4200D110BD13F861
:103E5000014D02F8014DF7E737B5002944D051F87C
:103E6000043C0190002BA1F10404B8BFE41800F059
:103E700013F91E4A0198136833B96360146003B0E4
:103E8000BDE8304000F00EB9A34208D92568611999
:103E90008B4201BF19685B6849192160EDE71A463A
:103EA0005B680BB1A342FAD911685518A5420BD132
:103EB000246821445418A3421160E0D11C685B6857
:103EC000536021441160DAE702D90C230360D6E77E
:103ED000256861198B4204BF19685B68636004BF81
:103EE000491921605460CAE703B030BD3C4200204C
:103EF00070B50E4E0C463168054611B900F0BCF89D
:103F000030602146284600F0B7F8431C0AD0C41C94
:103F100024F00304A04207D0211A284600F0ACF890
:103F2000013001D14FF0FF34204670BD40420020E7
:103F30002DE9F041CD1C25F0030508350C2D38BFC7
:103F40000C25002D074601DBA94205D90C233B6057
:103F500000263046BDE8F0812E4E00F09DF8336813
:103F60001C4634BB29463846FFF7C2FF431C0446B3
:103F70004DD134682646002E40D12368314638465C
:103F800004EB030800F078F880453AD12168033546
:103F90006D1A25F0030508350C2D38BF0C25294670
:103FA0003846FFF7A5FF01302BD023682B44236050
:103FB0000EE02268521B1ED40B2A16D96119A342A7
:103FC000256018BF5960636808BF316062514B605B
:103FD000384604F10B0600F065F826F00706231DAD
:103FE000F21AB6D09B1BA350B3E76268A3420CBF82
:103FF00032605A60ECE723466468B2E7344676687C
:10400000B9E70C233B60384600F04CF8A1E7256087
:10401000DEE700BF3C4200202DE9F0418046144617
:104020000E4621B9BDE8F0411146FFF781BF2AB91C
:10403000FFF712FF25462846BDE8F08100F038F86A
:104040008442074602D8B4EB500F12D821464046AE
:10405000FFF76EFF05460028EDD0BC4222463146F0
:1040600028BF3A46FFF7B8FB31464046FFF7F4FE5B
:10407000E1E73546DFE7000038B5064D002304468A
:1040800008462B60FCF7BCFF431C02D12B6803B130
:10409000236038BD44420020014800F011B800BF41
:1040A00048420020014800F00CB800BF4842002000
:1040B00051F8043C181F002BBCBF0B58C0187047A8
:1040C00070477047F8B500BFF8BC08BC9E46704703
:0C40D000F8B500BFF8BC08BC9E46704765
:1040DC00D007F4012030782530325825303258255D
:1040EC0030325825303258200D0A00004C65645F80
:1040FC00626C696E6B0000004C65645F626C696E8B
:10410C006B3100005461736B5F666C6173685F7731
:10411C003235000049444C4500000000546D7220BB
:10412C0053766300546D725100232D302B200068A0
:10413C006C4C006566674546470030313233343588
:10414C0036373839414243444546003031323334F6
:0C415C00353637383961626364656600EF
:04416800B501000895
:04416C0091010008B5
:104170000024F40037000000AAAAAAAA1000002018
:10418000000000000000000000000000000000002F
:10419000000000000000000000000000000000001F
:1041A000000000000000000000000000000000000F
:1041B00000000000000000000000000000000000FF
:1041C00000000000000000000000000000000000EF
:1041D00000000000000000000000000000000000DF
:040000050800373187
:00000001FF
