:020000040800F2
:100000000000022085050008F1030008F70300083E
:10001000FD030008030400080904000800000000B4
:100020000000000000000000000000000F040008B5
:100030001D040008000000002B040008390400081B
:10004000D5050008D5050008D5050008D505000828
:10005000D5050008D5050008D5050008D505000818
:10006000D5050008D5050008D5050008D505000808
:10007000D5050008D5050008D5050008D5050008F8
:10008000D5050008D5050008D5050008D5050008E8
:10009000D5050008D5050008D5050008D5050008D8
:1000A000D5050008D5050008D5050008D5050008C8
:1000B000D5050008D5050008D5050008D5050008B8
:1000C000D5050008D5050008D5050008D5050008A8
:1000D000D5050008D5050008D5050008D505000898
:1000E000D5050008D5050008D5050008D505000888
:1000F000D5050008D5050008D5050008D505000878
:10010000D5050008D5050008D5050008D505000867
:10011000D5050008D5050008D5050008D505000857
:10012000D5050008D5050008D5050008D505000847
:10013000D5050008D5050008D5050008D505000837
:10014000D5050008D5050008D5050008D505000827
:10015000D5050008D5050008D5050008D505000817
:10016000D5050008D5050008D5050008D505000807
:10017000D5050008D5050008D505000800000000D9
:08018000D5050008D5050008B3
:1001880010B5054C237833B9044B13B10448AFF3C9
:1001980000800123237010BD04000020000000002F
:1001A8002006000808B5034B1BB103490348AFF309
:1001B800008008BD0000000008000020200600089C
:1001C80080B485B000AF78607B6803F00703FB60FC
:1001D8000C4BDB68BB60BA684FF6FF031340BB608B
:1001E800FB681A02BB68134343F0BF6343F4003350
:1001F800BB60044ABB68D36000BF1437BD465DF8D6
:10020800047B704700ED00E080B500AF00F026F8F1
:1002180000F0B4F8104B5B690F4A23F0C003536138
:100228000D4B5B690C4A43F0800353614FF49670A1
:1002380000F07CF9084B5B69074A23F0C00353615F
:10024800054B5B69044A43F0400353614FF49670D1
:1002580000F06CF9DEE700BF0000024080B500AF97
:10026800404B1B683F4A43F4007313603D4B1B68C7
:100278003C4A43F4806313603A4B1B68394A43F4A1
:10028800807313600320FFF79BFF374B5B6C364A84
:1002980043F480435364344B1B6C334A43F080531C
:1002A8001364324B1B68314A43F4804313602E4B6E
:1002B8001B682D4A43F48033136000BF2A4B1B6828
:1002C80003F40033002BF9D0274B1B68264A23F090
:1002D8008073136000BF244B1B6803F00073002B6E
:1002E800F9D1214B224A5A601F4B1B681E4A43F022
:1002F8008073136000BF1C4B1B6803F00073002B56
:10030800F9D0184B1B6823F00703164A43F005037E
:100318001360154B9B6823F4604323F00403124ACF
:1003280043F004039360104B9B6823F4E05323F0DD
:1003380005030D4A43F0050393600B4B9B680A4A7B
:1003480023F47F639360084B9B6823F00303064AFA
:1003580043F002039360074B074A1A6000F0BAF8AB
:1003680000BF80BD003C02400038024000700040E1
:10037800042A400400000020007A030A80B400AF79
:10038800174B1B6B164A43F001031363154B1B688D
:10039800144A43F480531360124B1B68114A43F408
:1003A800804313600F4B5B680E4A23F0C003536011
:1003B8000C4B9B680B4A23F470439360094BDB6832
:1003C800084A43F4A043D360064B5B69054A43F0EF
:1003D800C003536100BFBD465DF8047B704700BF92
:1003E800003802400000024080B400AFFEE780B44D
:1003F80000AFFEE780B400AFFEE780B400AFFEE7D1
:1004080080B400AFFEE780B400AF00BFBD465DF822
:10041800047B704780B400AF00BFBD465DF8047B25
:10042800704780B400AF00BFBD465DF8047B7047DD
:1004380080B500AF00F060F800BF80BD80B483B025
:1004480000AF03463960FB7197F90730002B0ADBD0
:100458003B68DAB20C4997F907301201D2B20B4463
:1004680083F800230AE03B68DAB20849FB7903F015
:100478000F03043B1201D2B20B441A7600BF0C37AB
:10048800BD465DF8047B704700E100E000ED00E048
:1004980080B582B000AF78607B68013BB3F1807FA4
:1004A80001D301230FE00A4A7B68013B53600F2107
:1004B8004FF0FF30FFF7C2FF054B00229A60044B54
:1004C80007221A60002318460837BD4680BD00BFC2
:1004D80010E000E080B500AF054B1B68054AA2FBA1
:1004E80003239B091846FFF7D3FF00BF80BD00BF59
:1004F80000000020D34D621080B400AF044B1B688D
:100508000133034A136000BFBD465DF8047B7047A2
:100518002000002080B400AF034B1B681846BD467E
:100528005DF8047B704700BF2000002080B584B0D0
:1005380000AF7860FFF7EEFFF86000BFFFF7EAFF53
:100548000246FB68D31A7A689A42F7D800BF00BF00
:100558001037BD4680BD000080B400AF064BD3F80D
:100568008830054A43F47003C2F8883000BFBD469E
:100578005DF8047B704700BF00ED00E0DFF834D081
:10058800FFF7EAFF0C480D490D4A002302E0D45852
:10059800C4500433C4188C42F9D30A4A0A4C0023C5
:1005A80001E013600432A242FBD300F011F8FFF718
:1005B8002BFE7047000002200000002004000020ED
:1005C800400600080400002024000020FEE7000088
:1005D80070B50D4D0D4C641BA4100026A64209D120
:1005E8000B4D0C4C00F018F8641BA4100026A64212
:1005F80005D170BD55F8043B98470136EEE755F82C
:10060800043B98470136F2E7380600083806000828
:10061800380600083C060008F8B500BFF8BC08BC5E
:100628009E467047F8B500BFF8BC08BC9E467047A8
:04063800AD01000808
:04063C008901000828
:040640000024F4009E
:040000050800058565
:00000001FF
