:020000040800F2
:1000000000000220712C00084D0400085304000871
:10001000590400085F04000865040008000000009F
:10002000000000000000000000000000912800080F
:100030006B04000800000000692B0008CD2B0008AD
:10004000C12C0008C12C0008C12C0008C12C0008DC
:10005000C12C0008C12C0008C12C0008C12C0008CC
:10006000C12C0008C12C0008C12C0008C12C0008BC
:10007000C12C0008C12C0008C12C0008C12C0008AC
:10008000C12C0008C12C0008C12C0008C12C00089C
:10009000C12C0008C12C0008C12C0008C12C00088C
:1000A000C12C0008C12C0008C12C0008C12C00087C
:1000B00079040008C12C0008C12C0008C12C0008DC
:1000C000C12C0008C12C0008C12C0008C12C00085C
:1000D000C12C0008C12C0008C12C0008C12C00084C
:1000E000C12C0008C12C0008C12C0008C12C00083C
:1000F000C12C0008C12C0008C12C0008C12C00082C
:10010000C12C0008C12C0008C12C0008C12C00081B
:10011000C12C0008C12C0008C12C0008C12C00080B
:10012000C12C0008C12C0008C12C0008C12C0008FB
:10013000C12C0008C12C0008C12C0008C12C0008EB
:10014000C12C0008C12C0008C12C0008C12C0008DB
:10015000C12C0008C12C0008C12C0008C12C0008CB
:10016000C12C0008C12C0008C12C0008C12C0008BB
:10017000C12C0008C12C0008C12C000800000000A0
:08018000C12C0008C12C00088D
:1001880010B5054C237833B9044B13B10448AFF3C9
:1001980000800123237010BD0C0000200000000027
:1001A800382D000808B5034B1BB103490348AFF3CA
:1001B800008008BD0000000010000020382D000855
:1001C80080B485B000AF78607B6803F00703FB60FC
:1001D8000C4BDB68BB60BA684FF6FF031340BB608B
:1001E800FB681A02BB68134343F0BF6343F4003350
:1001F800BB60044ABB68D36000BF1437BD465DF8D6
:10020800047B704700ED00E080B584B000AF7860F3
:10021800094B5B69FB60FB681B0403F48002FB6805
:10022800DB4303F04003044913438B614FF4FA6046
:1002380000F03CFFECE700BF0000024080B584B04E
:1002480000AF7860094B5B69FB60FB681B0403F433
:100258000002FB68DB4303F08003044913438B610E
:1002680040F6B83000F022FFECE700BF0000024083
:1002780080B582B002AF00F023F800F0ADF800239B
:1002880001930123009300234FF480720849094821
:1002980000F0C0FD002301930223009300234FF4D4
:1002A80080720549054800F0B5FD00F07DFFFEE7C6
:1002B800502D000811020008582D000845020008BA
:1002C80080B500AF3E4B1B683D4A43F40073136092
:1002D8003B4B1B683A4A43F480631360384B1B68F6
:1002E800374A43F4807313600320FFF769FF354BE7
:1002F8005B6C344A43F480435364324B1B6C314A81
:1003080043F080531364304B1B682F4A43F48043F7
:1003180013602C4B1B682B4A43F48033136000BFD7
:10032800284B1B6803F40033002BF9D0254B1B68BE
:10033800244A23F08073136000BF224B1B6803F02C
:100348000073002BF9D11F4B204A5A601D4B1B68C4
:100358001C4A43F08073136000BF1A4B1B6803F0FC
:100368000073002BF9D0164B1B6823F00703144ABF
:1003780043F005031360134B9B6823F46043114A51
:1003880043F4004393600F4B9B6823F4E0530D4AFA
:1003980043F4A05393600B4B9B680A4A23F0F00385
:1003A8009360084B9B6823F00303064A43F002035B
:1003B8009360074B074A1A6000F0F2F800BF80BD4F
:1003C800003C02400038024000700040042A40040B
:1003D80000000020007A030A80B400AF174B1B6BA3
:1003E800164A43F001031363154B1B68144A43F480
:1003F80080531360124B1B68114A43F48043136007
:100408000F4B5B680E4A23F0C00353600C4B9B688C
:100418000B4A23F470439360094BDB68084A43F4A2
:10042800A043D360064B5B69054A43F0C0035361A0
:1004380000BFBD465DF8047B704700BF003802402E
:100448000000024080B400AFFEE780B400AFFEE7D2
:1004580080B400AFFEE780B400AFFEE780B400AF21
:10046800FEE780B400AF00BFBD465DF8047B70476F
:1004780080B500AF4FF080431B694FF0804223F0F6
:100488000103136100F0E8F800BF80BD80B400AF3D
:10049800044BDB681B0A03F007031846BD465DF8EA
:1004A800047B704700ED00E080B483B000AF0346E2
:1004B800FB7197F90730002B0BDBFB7903F01F0268
:1004C800074997F907305B09012000FA02F241F861
:1004D800232000BF0C37BD465DF8047B704700BF82
:1004E80000E100E080B483B000AF03463960FB71DF
:1004F80097F90730002B0ADB3B68DAB20C4997F909
:1005080007301201D2B20B4483F800230AE03B689B
:10051800DAB20849FB7903F00F03043B1201D2B2A7
:100528000B441A7600BF0C37BD465DF8047B704754
:1005380000E100E000ED00E080B489B000AFF860B1
:10054800B9607A60FB6803F00703FB61FB69C3F1DC
:100558000703042B28BF0423BB61FB690433062B64
:1005680002D9FB69033B00E000237B614FF0FF32B7
:10057800BB6902FA03F3DA43BB681A407B699A4005
:100588004FF0FF317B6901FA03F3D9437B680B40D5
:10059800134318462437BD465DF8047B70470000B6
:1005A80080B584B000AF0023FB602A4B1B6C294A3E
:1005B80043F0010313645323BB604FF080431B686F
:1005C8007B607B6823F070037B607B6823F4407357
:1005D8007B607B6823F080037B604FF080427B6800
:1005E80013604FF0804340F2E732DA624FF0804206
:1005F800BB6893624FF0804301225A614FF08043F9
:100608001B694FF0804223F0010313614FF08043D0
:10061800DB684FF0804243F00103D3601C20FFF7F2
:1006280043FFFFF733FFF86000220F21F868FFF758
:1006380083FF034619461C20FFF754FF4FF0804301
:100648001B684FF0804243F00103136000BF10376E
:10065800BD4680BD0038024080B400AF044B1B6823
:100668000133034A136000BFBD465DF8047B704741
:100678002800002080B400AF064BD3F88830054A24
:1006880043F47003C2F8883000BFBD465DF8047BB0
:10069800704700BF00ED00E080B483B000AF786021
:1006A8007B6803F108027B685A607B684FF0FF3271
:1006B8009A607B6803F108027B68DA607B6803F163
:1006C80008027B681A617B6800221A6000BF0C3739
:1006D800BD465DF8047B704780B483B000AF786096
:1006E8007B6800221A6100BF0C37BD465DF8047BA9
:1006F800704780B485B000AF786039603B681B688C
:10070800BB60BB68B3F1FF3F03D17B681B69FB602B
:100718000CE07B680833FB6002E0FB685B68FB6009
:10072800FB685B681B68BA689A42F6D2FB685A682D
:100738003B685A603B685B683A689A603B68FA684D
:100748009A60FB683A685A603B687A681A617B6805
:100758001B685A1C7B681A6000BF1437BD465DF8D9
:10076800047B704780B485B000AF78607B681B69F4
:10077800FB607B685B687A6892689A607B689B68B4
:100788007A6852685A60FB685B687A689A4203D153
:100798007B689A68FB685A607B6800221A61FB686C
:1007A8001B685A1EFB681A60FB681B6818461437DA
:1007B800BD465DF8047B704780B586B000AF7860B1
:1007C800396001237B617B683B613B69002B0AD15F
:1007D8004FF0500383F31188BFF36F8FBFF34F8F30
:1007E800FB6000BFFEE73B69002B5DD03B69DB6B1C
:1007F800002B59D03B691A6C3B69DB6B0021A3FBCA
:100808000223002B00D001210B46002B4CD102F013
:100818004DF93B691A683B69DB6B3969096C01FB67
:1008280003F31A443B699A603B6900229A633B6967
:100838001A683B695A603B691A683B69DB6B013B84
:100848003969096C01FB03F31A443B69DA603B69B7
:10085800FF2283F844203B69FF2283F845203B6848
:10086800002B14D13B691B69002B1AD03B6910334C
:10087800184600F0E5FF0346002B12D0154B4FF049
:1008880080521A60BFF34F8FBFF36F8F09E03B6947
:1008980010331846FFF700FF3B6924331846FFF76B
:1008A800FBFE02F033F901E000237B617B69002B3A
:1008B8000AD14FF0500383F31188BFF36F8FBFF352
:1008C8004F8FBB6000BFFEE77B6918461837BD46EF
:1008D80080BD00BF04ED00E080B58AB002AFF860CB
:1008E800B9601346FB710023FB61FB68002B2ED017
:1008F8000021BA68FB68A3FB0223002B00D001216A
:100908000B46002B23D1FB68BA6802FB03F313F1F3
:10091800510F1CD8FB68BA6802FB03F3BB61BB69C3
:100928005033184601F0D4FCF861FB69002B1CD049
:10093800FB697B617B6950337B61FA79FB690093C2
:1009480013467A69B968F86800F014F80DE0FB6995
:10095800002B0AD14FF0500383F31188BFF36F8F38
:10096800BFF34F8F3B6100BFFEE7FB691846203796
:10097800BD4680BD80B584B000AFF860B9607A60CC
:10098800FB70BB68002B03D1BB69BA691A6002E02F
:10099800BB697A681A60BB69FA68DA63BB69BA68C6
:1009A8001A640121B869FFF707FFBB69FA7883F871
:1009B8004C2000BF1037BD4680BD000080B58CB00C
:1009C80000AFF860B9607A600023FB62FB68BB6225
:1009D800BB6A002B0AD14FF0500383F31188BFF391
:1009E8006F8FBFF34F8F3B6200BFFEE7BB68002BE2
:1009F80003D1BB6A1B6C002B01D1012300E000234B
:100A0800002B0AD14FF0500383F31188BFF36F8F87
:100A1800BFF34F8FFB6100BFFEE701F025F90346E6
:100A2800002B02D17B68002B01D1012300E00023B9
:100A3800002B0AD14FF0500383F31188BFF36F8F57
:100A4800BFF34F8FBB6100BFFEE702F02FF8BB6A10
:100A58009B6B7B627B6A002B1FD0B968B86A00F079
:100A68008DF87B6A5A1EBB6A9A63BB6A1B69002BA6
:100A78000FD0BB6A1033184600F0E2FE0346002B85
:100A880007D03D4B4FF080521A60BFF34F8FBFF332
:100A98006F8F02F03BF8012369E07B68002B03D1DC
:100AA80002F034F8002362E0FB6A002B06D107F15C
:100AB8001003184600F09EFF0123FB6202F026F89F
:100AC80000F0B6FB01F0F2FFBB6A93F844305BB26A
:100AD800B3F1FF3F03D1BB6A002283F84420BB6A0D
:100AE80093F845305BB2B3F1FF3F03D1BB6A0022F4
:100AF80083F8452002F00AF83A1D07F11003114661
:100B0800184600F08DFF0346002B23D1B86A00F089
:100B1800ADF80346002B17D0BB6A24337A68114618
:100B2800184600F023FEB86A00F04EF800F08EFB7D
:100B38000346002B89D1104B4FF080521A60BFF347
:100B48004F8FBFF36F8F80E7B86A00F03DF800F071
:100B58007DFB7AE7B86A00F037F800F077FBB86AEF
:100B680000F084F80346002B3FF46FAF00231846CB
:100B78003037BD4680BD00BF04ED00E080B582B0CF
:100B880000AF786039607B681B6C002B18D07B68DD
:100B9800DA687B681B6C1A447B68DA607B68DA6801
:100BA8007B689B689A4203D37B681A687B68DA6023
:100BB8007B68D9687B681B6C1A46386802F0A2F813
:100BC80000BF0837BD4680BD80B584B000AF7860EF
:100BD80001F06CFF7B6893F84530FB7311E07B688C
:100BE8005B6A002B12D07B682433184600F028FE7D
:100BF8000346002B01D000F079FFFB7B013BDBB201
:100C0800FB7397F90F30002BE9DC00E000BF7B682D
:100C1800FF2283F8452001F079FF01F047FF7B6848
:100C280093F84430BB7311E07B681B69002B12D02A
:100C38007B681033184600F003FE0346002B01D0F2
:100C480000F054FFBB7B013BDBB2BB7397F90E305E
:100C5800002BE9DC00E000BF7B68FF2283F844201A
:100C680001F054FF00BF1037BD4680BD80B584B089
:100C780000AF786001F01AFF7B689B6B002B02D1F4
:100C88000123FB6001E00023FB6001F03FFFFB68EC
:100C980018461037BD4680BD80B487B000AF786075
:100CA800396000233B617B68002B0AD14FF0500369
:100CB80083F31188BFF36F8FBFF34F8FFB6000BFC3
:100CC800FEE73B68002B24D000237B611EE0184A16
:100CD8007B69DB0013445B687A689A4205D17B69BB
:100CE800DB00134A13443B6113E03B69002B0AD134
:100CF8000F4A7B6952F83330002B04D17B69DB0043
:100D08000B4A13443B617B6901337B617B69072B89
:100D1800DDD93B69002B05D03B693A681A603B690D
:100D28007A685A6000BF1C37BD465DF8047B70477F
:100D38002C00002080B586B000AFF860B9607A60FA
:100D4800FB687B6101F0B2FE7B6993F844305BB2CB
:100D5800B3F1FF3F03D17B69002283F844207B690C
:100D680093F845305BB2B3F1FF3F03D17B690022B2
:100D780083F8452001F0CAFE7B699B6B002B06D1E6
:100D88007B6924337A68B968184600F013FD7869DE
:100D9800FFF71AFF00BF1837BD4680BD80B58AB07F
:100DA80004AFF860B9607A603B607B689B001846C6
:100DB80001F08EFA38613B69002B13D05C2001F0FA
:100DC80087FA78617B69002B08D05C22002178695A
:100DD80001F0A6FF7B693A691A6305E0386901F0FA
:100DE800A7FB01E000237B617B69002B0DD000236A
:100DF80003937B6902937B6A01933B6A00933B6888
:100E08007A68B968F86800F028F87B6918461837D6
:100E1800BD4680BD80B588B002AFF860B9607A6021
:100E28003B607B6A01933B6A00933B687A68B968C8
:100E3800F868FFF7B3FF38613B69002B05D03869C4
:100E480000F09AF801237B6102E04FF0FF337B61E9
:100E58007B6918461837BD4680BD80B588B000AF9D
:100E6800F860B9607A603B603B6B186B7B689B00ED
:100E78001A46A52101F054FF3B6B1A6B7B6803F1FE
:100E88008043013B9B001344BB61BB6923F007030C
:100E9800BB61BB6903F00703002B0AD04FF0500376
:100EA80083F31188BFF36F8FBFF34F8F7B6100BF50
:100EB800FEE7BB68002B1ED00023FB6112E0BA6876
:100EC800FB69134419783A6BFB69134434330A46B7
:100ED8001A70BA68FB6913441B78002B06D0FB69AB
:100EE8000133FB61FB690F2BE9D900E000BF3B6BC5
:100EF800002283F84320BB6A372B0AD94FF05003EE
:100F080083F31188BFF36F8FBFF34F8F3B6100BF2F
:100F1800FEE7BB6A372B01D93723BB623B6BBA6A42
:100F2800DA623B6BBA6ADA643B6B04331846FFF744
:100F3800D3FB3B6B18331846FFF7CEFB3B6B3A6B82
:100F48001A61BB6AC3F138023B6B9A613B6B3A6B1F
:100F58005A623A68F968B86901F036FC02463B6B98
:100F68001A60FB6A002B02D0FB6A3A6B1A6000BF5A
:100F78002037BD4680BD000080B584B000AF7860E2
:100F880001F094FD424B1B680133414A1360414B09
:100F98001B68002B09D13F4A7B6813603C4B1B68D8
:100FA800012B10D100F0C6FD0DE03B4B1B68002B58
:100FB80009D1384B1B68DA6A7B68DB6A9A4202D827
:100FC800344A7B681360354B1B680133334A13601E
:100FD800324B1A687B685A647B68DA6A304B1B6844
:100FE8009A4203D97B68DB6A2D4A13607B68DA6A08
:100FF8002C4913469B0013449B000B4404331B6885
:10100800FB607B68FA689A60FB689A687B68DA60BC
:10101800FB689B687A6804325A607B681A1DFB6813
:101028009A607B68DA6A13469B0013449B001D4A4A
:101038001A447B685A617B68DA6A1A4913469B002E
:1010480013449B000B441B687A68D26A591C1548E4
:1010580013469B0013449B000344196001F056FD9E
:101068000D4B1B68002B0ED00A4B1B68DA6A7B6895
:10107800DB6A9A4207D20C4B4FF080521A60BFF3DA
:101088004F8FBFF36F8F00BF1037BD4680BD00BFC5
:10109800400500206C0000204C0500205C05002065
:1010A800480500207000002004ED00E080B584B001
:1010B80000AF78600023FB607B68002B17D000F03E
:1010C800B7F8124B1B68012B0AD04FF0500383F37B
:1010D8001188BFF36F8FBFF34F8FBB6000BFFEE770
:1010E8000021786800F0DEFD00F0B0F8F860FB68D9
:1010F800002B07D1064B4FF080521A60BFF34F8F79
:10110800BFF36F8F00BF1037BD4680BD6805002054
:1011180004ED00E080B58AB002AF0123FB61002333
:101128003B6100237B6111E01C4A7B6913441978F9
:101138003A467B6913440A461A703A467B69134457
:101148001B78002B06D07B6901337B617B690F2BF1
:10115800EADD00E000BF0023BB6115E0104B3B61F6
:10116800BB699B000F4A134439460193002300933F
:10117800002380223869FFF74DFEF861FB69002BD8
:1011880006D0BB690133BB61BB69002BE6DD00E01B
:1011980000BFFB6918462037BD4680BD602D00089A
:1011A8000D1B00086405002080B584B000AFFFF770
:1011B800B1FFF860FB68012B02D100F0E3FDF86095
:1011C800FB68012B16D14FF0500383F31188BFF34E
:1011D8006F8FBFF34F8FBB6000BF114B4FF0FF32D3
:1011E8001A60104B01221A600F4B00221A6001F09E
:1011F80073FB0EE0FB68B3F1FF3F0AD14FF05003D9
:1012080083F31188BFF36F8FBFF34F8F7B6000BFED
:10121800FEE7064B1B6800BF1037BD4680BD00BF08
:10122800600500204C050020440500200400002033
:1012380080B400AF044B1B680133034A136000BF3E
:10124800BD465DF8047B70476805002080B588B00E
:1012580000AF0023FB610023BB6101F027FC0023E2
:101268003B61754B1B68002B0AD14FF0500383F389
:101278001188BFF36F8FBFF34F8F3B6000BFFEE74E
:101288006D4B1B68013B6C4A13606B4B1B68002B52
:1012980040F0CB80694B1B68002B00F0C6808FE0C4
:1012A800674BDB68DB68FB61FB699B6AFB60FB697A
:1012B800DB69FA69126A9A60FB691B6AFA69D26982
:1012C8005A60FB685A68FB6918339A4203D1FB6974
:1012D8001A6AFB685A60FB6900229A62FB681B68FD
:1012E8005A1EFB681A60FB695B69BB60FB699B68F7
:1012F800FA69D2689A60FB69DB68FA6992685A6091
:10130800BB685A68FB6904339A4203D1FB69DA68FF
:10131800BB685A60FB6900225A61BB681B685A1E89
:10132800BB681A60FB69DA6A464B1B689A4203D9A4
:10133800FB69DB6A434A1360FB69DA6A4249134670
:101348009B0013449B000B4404331B687B60FB69C0
:101358007A689A607B689A68FB69DA607B689B6840
:10136800FA6904325A60FB691A1D7B689A60FB6946
:10137800DA6A13469B0013449B00334A1A44FB69FC
:101388005A61FB69DA6A304913469B0013449B0093
:101398000B441B68FA69D26A591C2B4813469B00F8
:1013A80013449B0003441960FB69DA6A274B1B68E6
:1013B800DB6A9A4204D9264A3B69012142F8231084
:1013C8001F4B1B68002B7FF46BAFFB69002B01D010
:1013D80000F02EFC1F4B1B687B617B69002B12D031
:1013E80000F04CF80346002B04D0194A3B69012150
:1013F80042F823107B69013B7B617B69002BEFD1AD
:10140800144B00221A60124A3B6952F82330002B11
:101418000BD00123BB610D4B1B680F4B4FF0805263
:101428001A60BFF34F8FBFF36F8F01F06FFBBB697B
:1014380018462037BD4680BD6805002040050020BD
:101448000005002048050020700000206C000020E6
:10145800540500205005002004ED00E080B483B05E
:1014680000AF054B1B687B607B6818460C37BD4690
:101478005DF8047B704700BF4405002080B58AB042
:1014880000AF00237B627F4B1B68002B40F0EF808E
:101498007D4B1B6801333B627B4A3B6A13603B6AA6
:1014A800002B20D1794B1B681B68002B0AD04FF00A
:1014B800500383F31188BFF36F8FBFF34F8F7B60A7
:1014C80000BFFEE7714B1B68FB61714B1B686F4ADD
:1014D80013606F4AFB6913606E4B1B6801336D4ADA
:1014E800136000F0A5FB6C4B1B683A6A9A42C0F087
:1014F800A980664B1B681B68002B04D1664B4FF014
:10150800FF321A609EE0614B1B68DB68DB68BB61D9
:10151800BB695B687B613A6A7B699A4203D25E4A1F
:101528007B6913608EE0BB695B693B61BB699B6843
:10153800BA69D2689A60BB69DB68BA6992685A600E
:101548003B695A68BB6904339A4203D1BB69DA68BC
:101558003B695A60BB6900225A613B691B685A1E85
:101568003B691A60BB699B6A002B1ED0BB699B6AEA
:10157800FB60BB69DB69BA69126A9A60BB691B6A5E
:10158800BA69D2695A60FB685A68BB6918339A42CB
:1015980003D1BB691A6AFB685A60BB6900229A6268
:1015A800FB681B685A1EFB681A60BB69DA6A3B4B0A
:1015B8001B689A4203D9BB69DB6A384A1360BB6966
:1015C800DA6A374913469B0013449B000B440433E3
:1015D8001B68BB60BB69BA689A60BB689A68BB69DC
:1015E800DA60BB689B68BA6904325A60BB691A1D25
:1015F800BB689A60BB69DA6A13469B0013449B0078
:10160800274A1A44BB695A61BB69DA6A24491346F6
:101618009B0013449B000B441B68BA69D26A591C8F
:101628001F4813469B0013449B0003441960BB6981
:10163800DA6A1C4B1B68DB6A9A427FF65AAF0123B1
:101648007B6256E7174B1B68DA6A154913469B00FD
:1016580013449B000B441B68012B01D901237B62B7
:10166800114B1B68002B07D001237B6204E00F4B52
:101678001B6801330D4A13607B6A18462837BD463C
:1016880080BD00BF6805002044050020F804002044
:10169800FC040020580500206005002048050020B3
:1016A800700000206C000020540500205005002028
:1016B80080B485B000AF284B1B68002B03D0274BA4
:1016C80001221A6042E0254B00221A60244B1B6855
:1016D800FB6010E0FB68002B0AD14FF0500383F346
:1016E8001188BFF36F8FBFF34F8F7B6000BFFEE79A
:1016F800FB68013BFB601B49FA6813469B001344D7
:101708009B000B441B68002BE4D0FA6813469B002F
:1017180013449B00134A1344BB60BB685B685A6858
:10172800BB685A60BB685A68BB6808339A4203D1E1
:10173800BB68DA68BB685A60BB685B68DB680A4AE2
:101748001360074AFB681360074B1B6800BF143718
:10175800BD465DF8047B70476805002054050020ED
:1017680048050020700000206C00002080B584B07F
:1017780000AF786039607B68002B0AD14FF05003C6
:1017880083F31188BFF36F8FBFF34F8FFB6000BFE8
:10179800FEE7074B1B68183319467868FEF7A9FF60
:1017A8000121386800F07EFA00BF1037BD4680BDC1
:1017B8006C00002080B586B000AFF860B9607A6030
:1017C800FB68002B0AD14FF0500383F31188BFF355
:1017D8006F8FBFF34F8F3B6100BFFEE7FB685B680D
:1017E8007B61164B1B687A69DA61144B1B687A694E
:1017F80092681A62114B1A687B699B6818325A60A2
:101808000E4B1B6803F118027B699A600B4B1B682F
:10181800FA689A62FB681B685A1CFB681A607B6846
:10182800002B02D04FF0FF33BB607968B86800F036
:1018380039FA00BF1837BD4680BD00BF6C000020D4
:1018480080B48BB000AF78607B68DB68DB683B6294
:101858003B6A002B0AD14FF0500383F31188BFF382
:101868006F8FBFF34F8FFB6000BFFEE73B6A9B6A39
:10187800FB613B6ADB693A6A126A9A603B6A1B6AD7
:101888003A6AD2695A60FB695A683B6A18339A42C5
:1018980003D13B6A1A6AFB695A603B6A00229A6262
:1018A800FB691B685A1EFB691A604C4B1B68002BAE
:1018B80061D13B6A5B697B613B6A9B683A6AD26823
:1018C8009A603B6ADB683A6A92685A607B695A6830
:1018D8003B6A04339A4203D13B6ADA687B695A60EF
:1018E8003B6A00225A617B691B685A1E7B691A6031
:1018F8003B6ADA6A3A4B1B689A4203D93B6ADB6A4D
:10190800374A13603B6ADA6A364913469B00134428
:101918009B000B4404331B683B613B6A3A699A603D
:101928003B699A683B6ADA603B699B683A6A0432A9
:101938005A603B6A1A1D3B699A603B6ADA6A134629
:101948009B0013449B00274A1A443B6A5A613B6A2E
:10195800DA6A244913469B0013449B000B441B6816
:101968003A6AD26A591C1F4813469B0013449B00CD
:10197800034419601BE01C4B5B68BB613B6ABA6996
:10198800DA61BB699A683B6A1A62BB699B683A6A02
:1019980018325A603B6A03F11802BB699A603B6AC5
:1019A800114A9A62104B1B6801330F4A13603B6A55
:1019B800DA6A0E4B1B68DB6A9A4205D901237B62FF
:1019C8000B4B01221A6001E000237B627B6A1846F8
:1019D8002C37BD465DF8047B704700BF68050020C2
:1019E8004805002070000020000500206C00002041
:1019F8005405002080B483B000AF7860064B1A68A5
:101A08007B681A60054B1A687B685A6000BF0C3700
:101A1800BD465DF8047B704758050020440500204A
:101A280080B588B000AF786039607B68002B0AD138
:101A38004FF0500383F31188BFF36F8FBFF34F8FBD
:101A48003B6100BFFEE73B68002B0AD14FF0500313
:101A580083F31188BFF36F8FBFF34F8FFB6000BF15
:101A6800FEE701F023F81F4B1B68BB617B685B68CE
:101A7800BA69D31A7B613B681B68B3F1FF3F02D197
:101A88000023FB6126E07B681A68174B1B689A42A3
:101A98000AD07B685B68BA699A4205D30123FB6167
:101AA8003B6800221A6015E03B681B687A699A4215
:101AB8000BD23B681A687B69D21A3B681A6078684F
:101AC800FFF798FF0023FB6104E03B6800221A60DF
:101AD8000123FB6101F01AF8FB6918462037BD465F
:101AE80080BD00BF440500205805002080B400AF29
:101AF800034B01221A6000BFBD465DF8047B7047A6
:101B08005405002080B582B000AF786000F052F82C
:101B1800064B1B68012BF9D9054B4FF080521A6010
:101B2800BFF34F8FBFF36F8FF0E700BF7000002047
:101B380004ED00E080B582B000AF00237B600CE0CC
:101B48007A6813469B0013449B00124A13441846B4
:101B5800FEF7A2FD7B6801337B607B68372BEFD9EA
:101B68000D48FEF799FD0D48FEF796FD0C48FEF767
:101B780093FD0C48FEF790FD0B48FEF78DFD0B4BCF
:101B8800054A1A600A4B054A1A6000BF0837BD4665
:101B980080BD00BF70000020D0040020E4040020B5
:101BA80000050020140500202C050020F804002062
:101BB800FC04002080B582B000AF19E000F076FF89
:101BC800104BDB68DB687B607B6804331846FEF7E4
:101BD800C9FD0D4B1B68013B0B4A13600B4B1B687F
:101BE800013B0A4A136000F091FF786800F010F892
:101BF800064B1B68002BE1D100BF00BF0837BD466C
:101C080080BD00BF140500204005002028050020E5
:101C180080B582B000AF78607B681B6B184600F017
:101C280087FC786800F084FC00BF0837BD4680BD9B
:101C380080B400AF0A4B1B681B68002B04D1094B0A
:101C48004FF0FF321A6005E0054B1B68DB681B6824
:101C5800044A136000BFBD465DF8047B704700BFAF
:101C6800F80400206005002080B483B000AF0B4B5F
:101C78001B68002B02D101237B6008E0084B1B681E
:101C8800002B02D102237B6001E000237B607B688C
:101C980018460C37BD465DF8047B70474C0500209C
:101CA8006805002080B588B000AF786039602F4B98
:101CB8001B68FB612E4B1B68BB612E4B1B687B614D
:101CC8002D4B1B6804331846FEF74CFD7B68B3F1B7
:101CD800FF3F24D13B68002B21D0284B5B683B6138
:101CE800254B1B683A699A60234B1B683A699268CE
:101CF800DA60214B1A683B699B6804325A601E4BB4
:101D08001B681A1D3B699A601B4B1B681B4A5A616A
:101D18001A4B1B680133194A136000BF22E0FA69A5
:101D28007B681344FB60144B1B68FA685A60FA68B6
:101D3800FB699A4207D2104B1B680433194678692D
:101D4800FEF7D7FC0EE00C4B1B6804331946B86944
:101D5800FEF7CFFC0A4B1B68FA689A4202D2084A7F
:101D6800FB68136000BF2037BD4680BD44050020D6
:101D7800F8040020FC0400206C0000202C05002042
:101D88006005002080B584B002AF00237B6000F0BE
:101D980069FA114B1B68002B0BD0104B01930223DF
:101DA800009300234FF480720D490E48FFF732F874
:101DB80078607B68002B0AD14FF0500383F31188B9
:101DC800BFF36F8FBFF34F8F3B6000BFFEE77B68A9
:101DD80018460837BD4680BD9C050020A005002098
:101DE800682D0008951E000880B584B000AFF86023
:101DF800B9607A6008E0FB689B69BA681344BB6005
:101E0800FB681B6AF8689847FB689A69BB68D11831
:101E1800BB687A68F86800F0DDF80346002BEAD161
:101E280000BF00BF1037BD4680BD000080B584B03C
:101E380000AF78603960144B1B68DB68DB68FB60B7
:101E4800FB6804331846FEF78DFCFB6893F82830CE
:101E580003F00403002B05D03A687968F868FFF7A7
:101E6800C3FF08E0FB6893F8283023F00103DAB2D7
:101E7800FB6883F82820FB681B6AF868984700BF4E
:101E88001037BD4680BD00BF9405002080B584B0E2
:101E980000AF786007F10803184600F057F8F860BB
:101EA800BB681946F86800F003F800F0D5F8F1E7C8
:101EB80080B584B000AF78603960FFF7B9F907F1F1
:101EC8000803184600F066F8F860BB68002B30D1AC
:101ED8003B68002B0AD17A68FB689A4206D8FFF75C
:101EE800B5F9F9687868FFF7A1FF24E03B68002B93
:101EF80008D0134B1B681B68002B01D1012300E09D
:101F080000233B600F4B18687A68FB68D31A3A685D
:101F18001946FEF70FFFFFF799F90346002B0AD180
:101F2800094B4FF080521A60BFF34F8FBFF36F8F8A
:101F380001E0FFF78BF900BF1037BD4680BD00BF39
:101F4800980500209C05002004ED00E080B485B0D1
:101F580000AF78600E4B1B681B68002B01D1012273
:101F680000E000227B681A607B681B68002B05D1A3
:101F7800074B1B68DB681B68FB6001E00023FB6004
:101F8800FB6818461437BD465DF8047B704700BFF0
:101F98009405002080B584B000AF7860FFF75EFA42
:101FA800F8600B4B1B68FA689A4205D200F034F9C6
:101FB8007B6801221A6002E07B6800221A60044AEA
:101FC800FB681360FB6818461037BD4680BD00BF2C
:101FD800A405002080B586B000AFF860B9607A60CB
:101FE8003B6000237B61FB68BA685A60FB68FA684B
:101FF8001A61BA687B689A4212D87A683B68D21A22
:10200800FB689B699A4202D301237B611BE0104B5A
:102018001A68FB68043319461046FEF76AFB12E09B
:102028007A683B689A4206D2BA683B689A4202D3F9
:1020380001237B6107E0074B1A68FB6804331946E4
:102048001046FEF756FB7B6918461837BD4680BD1B
:10205800980500209405002080B58AB000AF3B1D8C
:1020680000221A605A609A60DA60C2E07B68002B2E
:1020780018DA3B1D04337B627B6A002B0AD14FF0D0
:10208800500383F31188BFF36F8FBFF34F8FBB618A
:1020980000BFFEE77B6A1B687A6A50687A6A9268B2
:1020A800114698477B68002BC0F2A280FB683B6210
:1020B8003B6A5B69002B04D03B6A04331846FEF781
:1020C80051FB3B461846FFF765FFF8617B68013B0B
:1020D800082B00F28E8001A252F823F00921000893
:1020E800092100087121000885210008CF21000876
:1020F800092100080921000871210008852100082C
:102108003B6A93F8283043F00103DAB23B6A83F85C
:102118002820BA683B6A9B69D118BB68FA69386A93
:10212800FFF758FF0346002B63D03B6A93F828302B
:1021380003F00403002B09D0BA683B6A9B69134477
:10214800FA691946386AFFF74FFE08E03B6A93F8C8
:10215800283023F00103DAB23B6A83F828203B6A6F
:102168001B6A386A984744E03B6A93F8283023F0A2
:102178000103DAB23B6A83F828203AE03B6A93F815
:10218800283043F00103DAB23B6A83F82820BA68A2
:102198003B6A9A613B6A9B69002B0AD14FF0500356
:1021A80083F31188BFF36F8FBFF34F8F7B6100BF3D
:1021B800FEE73B6A9A69FB69D118FB69FA69386AD4
:1021C800FFF708FF15E03B6A93F8283003F0020395
:1021D800002B03D1386A00F0ABF90AE03B6A93F8A8
:1021E800283023F00103DAB23B6A83F8282000E0A4
:1021F80000BF084B1B68391D00221846FEF7DEFB9E
:102208000346002B7FF432AF00BF00BF2837BD461E
:1022180080BD00BF9C05002080B582B000AF09E0FA
:102228000E4B1B68DB681B683B604FF0FF3138685A
:10223800FFF7FCFD094B1B681B68002BF0D1074B0F
:102248001B687B60064B1B68044A1360044A7B6862
:10225800136000BF0837BD4680BD00BF940500204D
:102268009805002080B500AF00F020FC124B1B68D9
:10227800002B1DD11148FEF70FFA1148FEF70CFA92
:10228800104B0E4A1A60104B0D4A1A60002210219A
:102298000A20FEF721FB0346074A1360064B1B681A
:1022A800002B05D0044B1B6808491846FEF7F4FCC0
:1022B80000F02CFC00BF80BD9C0500206C050020B0
:1022C800800500209405002098050020702D000846
:1022D80080B58EB000AF78600023FB620023BB623C
:1022E8007B68002B22D00823DB437A689A421BD8EC
:1022F80008227B6813447B607B6803F00703002B8C
:1023080014D07B6803F00703C3F108037B627B6A80
:10231800DB437A689A4204D87A687B6A13447B6004
:1023280004E000237B6001E000237B60FEF780FF70
:10233800784B1B68002B01D100F072F97B68002BE9
:10234800C0F2D1807B68002B00F0CD80724B1B68F7
:102358007A689A4200F2C780704B3B636F4B1B68E8
:102368007B637B6B6E4A934205D37B6B6D4A9342CA
:1023780001D8012300E00023002B27D14FF05003A0
:1023880083F31188BFF36F8FBFF34F8FFB6100BFDB
:10239800FEE77B6B3B637B6B1B687B637B6B604AF5
:1023A800934205D37B6B5F4A934201D8012300E037
:1023B8000023002B0AD14FF0500383F31188BFF399
:1023C8006F8FBFF34F8FBB6100BFFEE77B6B5B680E
:1023D8007A689A4203D97B6B1B68002BD9D14D4B85
:1023E8001B687A6B9A427ED03B6B1B6808221344A9
:1023F800FB62FB6A4A4A934205D3FB6A494A934205
:1024080001D8012300E00023002B0AD14FF050032C
:1024180083F31188BFF36F8FBFF34F8F7B6100BFCA
:10242800FEE77B6B1A683B6B1A607B6B5B687A68AC
:102438009A420AD94FF0500383F31188BFF36F8F84
:10244800BFF34F8F3B6100BFFEE77B6B5A687B6829
:10245800D21A08235B009A4223D97A6B7B6813440B
:102468003B623B6A03F00703002B0AD04FF050038E
:1024780083F31188BFF36F8FBFF34F8FFB6000BFEB
:10248800FEE77B6B5A687B68D21A3B6A5A607B6BA3
:102498007A685A603B6B1A683B6A1A603B6B3A6A07
:1024A8001A601D4B1A687B6B5B68D31A1A4A136053
:1024B800194B1A681C4B1B689A4203D2164B1B68AF
:1024C800194A13607B6B5B68BB627B6B5B6843F08C
:1024D80000427B6B5A607B6B00221A60134B1B68AF
:1024E8000133124A1360FEF7B1FEFB6A03F00703DB
:1024F800002B0AD04FF0500383F31188BFF36F8F7E
:10250800BFF34F8FBB6000BFFEE7FB6A1846383742
:10251800BD4680BDB0410020B4410020A841002044
:10252800A8050020A7410020B8410020BC41002098
:1025380080B588B000AF78607B68FB617B68002B52
:1025480061D008235B42FA691344FB61FB69BB61F4
:10255800BB692F4A934205D3BB692E4A934201D8DF
:10256800012300E00023002B0AD14FF0500383F32E
:102578001188BFF36F8FBFF34F8F7B6100BFFEE7FA
:10258800BB695B68002B0ADB4FF0500383F31188AB
:10259800BFF36F8FBFF34F8F3B6100BFFEE7BB698F
:1025A8001B68002B0AD04FF0500383F31188BFF348
:1025B8006F8FBFF34F8FFB6000BFFEE7BB695B689F
:1025C800DB0F03F00103DBB2002B1CD0BB691B68D7
:1025D800002B18D1BB695B6823F00042BB695A60C5
:1025E800FEF726FEBB695A680B4B1B6813440A4A60
:1025F8001360B86900F06EF8084B1B680133074A8E
:102608001360FEF723FE00BF2037BD4680BD00BF24
:10261800A8050020A7410020B4410020C0410020A7
:1026280080B485B000AF4FF47053BB60244BFB609F
:10263800FB6803F00703002B0CD0FB680733FB6033
:10264800FB6823F00703FB60BA68FB68D31A1C4ACF
:102658001344BB60FB681B4A13601A4B00225A6084
:10266800FA68BB6813447B6008227B689B1A7B600E
:102678007B6823F007037B607B68134A1360124B67
:102688001B6800225A60104B1B6800221A60FB6806
:102698003B603B687A68D21A3B685A600A4B1A68F2
:1026A8003B681A603B685B68084A13603B685B6874
:1026B800074A136000BF1437BD465DF8047B7047B6
:1026C800A8050020A8410020B0410020B841002002
:1026D800B441002080B487B000AF7860364B7B618E
:1026E80002E07B691B687B617B691B687A689A4298
:1026F800F7D87B69304A934217D07B692F4A9342B7
:1027080005D37B692E4A934201D8012300E00023B8
:10271800002B0AD14FF0500383F31188BFF36F8F5A
:10272800BFF34F8FFB6000BFFEE77B693B617B69AE
:102738005B683A6913447A689A4208D17B695A6897
:102748007B685B681A447B695A607B697B607B683D
:102758003B617B685B683A691A447B691B689A42EB
:1027680018D17B691A68174B1B689A420DD07B6891
:102778005A687B691B685B681A447B685A607B6986
:102788001B681A687B681A6008E00E4B1A687B6839
:102798001A6003E07B691A687B681A607A697B684B
:1027A8009A4202D07B697A681A6000BF1C37BD461E
:1027B8005DF8047B704700BFA8410020A8050020F1
:1027C800A7410020B041002080B485B000AFF86078
:1027D800B9607A60FB68043BFB60FB684FF080726D
:1027E8001A60FB68043BFB60BB6823F00102FB68CE
:1027F8001A60FB68043BFB600C4AFB681A60FB68C4
:10280800143BFB607A68FB681A60FB68043BFB605A
:10281800FB686FF002021A60FB68203BFB60FB68F4
:1028280018461437BD465DF8047B70473928000800
:1028380080B485B000AF00237B60124B1B68B3F1F6
:10284800FF3F0AD04FF0500383F31188BFF36F8F17
:10285800BFF34F8FFB6000BFFEE74FF0500383F3D9
:102868001188BFF36F8FBFF34F8FBB6000BF00BFEE
:102878007B68002BFCD000BF00BF1437BD465DF855
:10288800047B704708000020064B19680868B0E808
:10289800F04F80F30988BFF36F8F4FF0000080F38B
:1028A800118870476C00002000BF00BF084800680E
:1028B800006880F308884FF0000080F3148862B63F
:1028C80061B6BFF34F8FBFF36F8F00DF00BF00000B
:1028D80008ED00E000BF00BF80B58CB000AF664BCC
:1028E8001B68664A93420AD14FF0500383F311885C
:1028F800BFF36F8FBFF34F8F7B6200BFFEE75E4B66
:102908001B685F4A93420AD14FF0500383F3118842
:10291800BFF36F8FBFF34F8F3B6200BFFEE7594B8A
:102928001B68FB62FB6A2C331B68574A93420AD028
:102938004FF0500383F31188BFF36F8FBFF34F8FAE
:10294800FB6100BFFEE7FB6A38331B684F4A9342BE
:102958000AD04FF0500383F31188BFF36F8FBFF392
:102968004F8FBB6100BFFEE70023BB60484BBB62D3
:10297800BB6A1B78DBB2FB73BB6AFF221A70BB6AA7
:102988001B78DBB2FB71FB79DBB203F05003DAB2E0
:10299800404B1A703F4B1B78002B0AD14FF0500365
:1029A80083F31188BFF36F8FBFF34F8F7B6100BF35
:1029B800FEE7FB79DBB2DB4303F05003002B12D0B8
:1029C8004FF0500383F31188BFF36F8FBFF34F8F1E
:1029D8003B6100BFFEE7BB680133BB60FB79DBB23C
:1029E8005B00DBB2FB71FB79DBB203F08003802B69
:1029F800F1D0BB68082B03D1274B00221A6004E0F2
:102A0800BB68C3F10703244A1360234B1B681B02EE
:102A1800214A1360204B1B6803F4E0631E4A1360CD
:102A2800FB7BDAB2BB6A1A701C4B1B681B4A43F467
:102A38007F031360194B1B68184A43F07F431360E8
:102A4800174B00221A6000F0DFF8164B00221A60BC
:102A580000F0FEF8144B1B68134A43F04043136020
:102A6800FFF724FFFEF724FEFFF7E2FE00231846D7
:102A78003037BD4680BD00BF00ED00E071C20F4198
:102A880070C20F4108ED00E091280008692B00088A
:102A980000E400E0C4410020C841002020ED00E02F
:102AA8001CED00E00800002034EF00E080B483B0A3
:102AB80000AF4FF0500383F31188BFF36F8FBFF35C
:102AC8004F8F7B6000BF0F4B1B6801330D4A1360AB
:102AD8000C4B1B68012B0FD10B4B1B68DBB2002B77
:102AE8000AD04FF0500383F31188BFF36F8FBFF301
:102AF8004F8F3B6000BFFEE700BF0C37BD465DF857
:102B0800047B70470800002004ED00E080B483B027
:102B180000AF124B1B68002B0AD14FF0500383F310
:102B28001188BFF36F8FBFF34F8F7B6000BFFEE745
:102B38000A4B1B68013B094A1360084B1B68002BB2
:102B480005D100233B603B6883F3118800BF00BFB9
:102B58000C37BD465DF8047B704700BF08000020B5
:102B6800EFF30980BFF36F8F144B1A681EF0100F34
:102B780008BF20ED108A20E9F04F10602DE9090008
:102B88004FF0500080F31188BFF34F8FBFF36F8F62
:102B9800FEF78EFD4FF0000080F3118809BC19681C
:102BA8000868B0E8F04F1EF0100F08BFB0EC108AAC
:102BB80080F30988BFF36F8F704700006C00002016
:102BC80000BF00BF80B582B000AF4FF0500383F361
:102BD8001188BFF36F8FBFF34F8F7B6000BFFEF785
:102BE8004DFC0346002B03D0064B4FF080521A6071
:102BF80000233B603B6883F3118800BF00BF0837A0
:102C0800BD4680BD04ED00E080B400AF0B4B002250
:102C18001A600B4B00221A600A4B1B680A4AA2FB77
:102C280003239B09094A013B1360044B07221A60DE
:102C380000BFBD465DF8047B704700BF10E000E0B0
:102C480018E000E000000020D34D621014E000E01E
:102C5800DFF80C00016841F4700101607047000062
:102C680088ED00E000BF00BFDFF834D0FDF702FDBB
:102C78000C480D490D4A002302E0D458C4500433CF
:102C8800C4188C42F9D30A4A0A4C002301E01360A5
:102C98000432A242FBD300F011F8FDF7E9FA7047BD
:102CA80000000220000000200C000020802D0008F9
:102CB8000C000020CC410020FEE7000070B50D4D4F
:102CC8000D4C641BA4100026A64209D10B4D0C4CD8
:102CD80000F02EF8641BA4100026A64205D170BD92
:102CE80055F8043B98470136EEE755F8043B9847FA
:102CF8000136F2E7782D0008782D0008782D0008B5
:102D08007C2D00080A44914200F1FF3300D170473E
:102D180010B511F8014B03F8014F9142F9D110BDDC
:102D280002440346934200D1704703F8011BF9E7B8
:102D3800F8B500BFF8BC08BC9E467047F8B500BFA0
:082D4800F8BC08BC9E46704770
:102D50005461736B5F3100005461736B5F3200002C
:102D600049444C4500000000546D722053766300C6
:082D7000546D725100000000D7
:042D7800AD010008A1
:042D7C0089010008C1
:0C2D80000024F40037000000AAAAAAAA50
:0400000508002C7152
:00000001FF
